{"abi":[{"type":"constructor","inputs":[{"name":"_computeRegistry","type":"address","internalType":"address"},{"name":"_owner","type":"address","internalType":"address"}],"stateMutability":"nonpayable"},{"type":"function","name":"MAX_EXPIRY","inputs":[],"outputs":[{"name":"","type":"uint256","internalType":"uint256"}],"stateMutability":"view"},{"type":"function","name":"MIN_PRICE","inputs":[],"outputs":[{"name":"","type":"uint256","internalType":"uint256"}],"stateMutability":"view"},{"type":"function","name":"activeAsks","inputs":[{"name":"","type":"uint64","internalType":"uint64"},{"name":"","type":"string","internalType":"string"},{"name":"","type":"uint256","internalType":"uint256"}],"outputs":[{"name":"","type":"bytes32","internalType":"bytes32"}],"stateMutability":"view"},{"type":"function","name":"activeBids","inputs":[{"name":"","type":"uint64","internalType":"uint64"},{"name":"","type":"string","internalType":"string"},{"name":"","type":"uint256","internalType":"uint256"}],"outputs":[{"name":"","type":"bytes32","internalType":"bytes32"}],"stateMutability":"view"},{"type":"function","name":"cancelOrder","inputs":[{"name":"orderId","type":"bytes32","internalType":"bytes32"}],"outputs":[],"stateMutability":"nonpayable"},{"type":"function","name":"cleanupExpiredOrders","inputs":[{"name":"taskType","type":"uint64","internalType":"uint64"},{"name":"modelId","type":"string","internalType":"string"}],"outputs":[],"stateMutability":"nonpayable"},{"type":"function","name":"computeRegistry","inputs":[],"outputs":[{"name":"","type":"address","internalType":"address"}],"stateMutability":"view"},{"type":"function","name":"consumerMatches","inputs":[{"name":"","type":"address","internalType":"address"},{"name":"","type":"uint256","internalType":"uint256"}],"outputs":[{"name":"","type":"bytes32","internalType":"bytes32"}],"stateMutability":"view"},{"type":"function","name":"fillOrder","inputs":[{"name":"orderId","type":"bytes32","internalType":"bytes32"},{"name":"fillQuantity","type":"uint256","internalType":"uint256"}],"outputs":[{"name":"","type":"uint256","internalType":"uint256"}],"stateMutability":"nonpayable"},{"type":"function","name":"getActiveAsks","inputs":[{"name":"taskType","type":"uint64","internalType":"uint64"},{"name":"modelId","type":"string","internalType":"string"}],"outputs":[{"name":"orderIds","type":"bytes32[]","internalType":"bytes32[]"}],"stateMutability":"view"},{"type":"function","name":"getActiveBids","inputs":[{"name":"taskType","type":"uint64","internalType":"uint64"},{"name":"modelId","type":"string","internalType":"string"}],"outputs":[{"name":"orderIds","type":"bytes32[]","internalType":"bytes32[]"}],"stateMutability":"view"},{"type":"function","name":"getBestAsk","inputs":[{"name":"taskType","type":"uint64","internalType":"uint64"},{"name":"modelId","type":"string","internalType":"string"}],"outputs":[{"name":"","type":"tuple","internalType":"struct IOrderBook.Order","components":[{"name":"orderId","type":"bytes32","internalType":"bytes32"},{"name":"providerAuthority","type":"address","internalType":"address"},{"name":"side","type":"uint8","internalType":"uint8"},{"name":"pricePerRequest","type":"uint256","internalType":"uint256"},{"name":"taskType","type":"uint64","internalType":"uint64"},{"name":"quantity","type":"uint256","internalType":"uint256"},{"name":"filledQuantity","type":"uint256","internalType":"uint256"},{"name":"status","type":"uint8","internalType":"uint8"},{"name":"expiry","type":"uint256","internalType":"uint256"},{"name":"modelId","type":"string","internalType":"string"},{"name":"signature","type":"bytes","internalType":"bytes"}]}],"stateMutability":"view"},{"type":"function","name":"getBestBid","inputs":[{"name":"taskType","type":"uint64","internalType":"uint64"},{"name":"modelId","type":"string","internalType":"string"}],"outputs":[{"name":"","type":"tuple","internalType":"struct IOrderBook.Order","components":[{"name":"orderId","type":"bytes32","internalType":"bytes32"},{"name":"providerAuthority","type":"address","internalType":"address"},{"name":"side","type":"uint8","internalType":"uint8"},{"name":"pricePerRequest","type":"uint256","internalType":"uint256"},{"name":"taskType","type":"uint64","internalType":"uint64"},{"name":"quantity","type":"uint256","internalType":"uint256"},{"name":"filledQuantity","type":"uint256","internalType":"uint256"},{"name":"status","type":"uint8","internalType":"uint8"},{"name":"expiry","type":"uint256","internalType":"uint256"},{"name":"modelId","type":"string","internalType":"string"},{"name":"signature","type":"bytes","internalType":"bytes"}]}],"stateMutability":"view"},{"type":"function","name":"getMatches","inputs":[{"name":"provider","type":"address","internalType":"address"},{"name":"startTime","type":"uint256","internalType":"uint256"}],"outputs":[{"name":"","type":"tuple[]","internalType":"struct IOrderBook.Match[]","components":[{"name":"matchId","type":"bytes32","internalType":"bytes32"},{"name":"bidOrderId","type":"bytes32","internalType":"bytes32"},{"name":"askOrderId","type":"bytes32","internalType":"bytes32"},{"name":"price","type":"uint256","internalType":"uint256"},{"name":"quantity","type":"uint256","internalType":"uint256"},{"name":"timestamp","type":"uint256","internalType":"uint256"},{"name":"consumer","type":"address","internalType":"address"},{"name":"provider","type":"address","internalType":"address"}]}],"stateMutability":"view"},{"type":"function","name":"getOrder","inputs":[{"name":"orderId","type":"bytes32","internalType":"bytes32"}],"outputs":[{"name":"","type":"tuple","internalType":"struct IOrderBook.Order","components":[{"name":"orderId","type":"bytes32","internalType":"bytes32"},{"name":"providerAuthority","type":"address","internalType":"address"},{"name":"side","type":"uint8","internalType":"uint8"},{"name":"pricePerRequest","type":"uint256","internalType":"uint256"},{"name":"taskType","type":"uint64","internalType":"uint64"},{"name":"quantity","type":"uint256","internalType":"uint256"},{"name":"filledQuantity","type":"uint256","internalType":"uint256"},{"name":"status","type":"uint8","internalType":"uint8"},{"name":"expiry","type":"uint256","internalType":"uint256"},{"name":"modelId","type":"string","internalType":"string"},{"name":"signature","type":"bytes","internalType":"bytes"}]}],"stateMutability":"view"},{"type":"function","name":"getUserOrders","inputs":[{"name":"user","type":"address","internalType":"address"}],"outputs":[{"name":"orderIds","type":"bytes32[]","internalType":"bytes32[]"}],"stateMutability":"view"},{"type":"function","name":"matches","inputs":[{"name":"","type":"bytes32","internalType":"bytes32"}],"outputs":[{"name":"matchId","type":"bytes32","internalType":"bytes32"},{"name":"bidOrderId","type":"bytes32","internalType":"bytes32"},{"name":"askOrderId","type":"bytes32","internalType":"bytes32"},{"name":"price","type":"uint256","internalType":"uint256"},{"name":"quantity","type":"uint256","internalType":"uint256"},{"name":"timestamp","type":"uint256","internalType":"uint256"},{"name":"consumer","type":"address","internalType":"address"},{"name":"provider","type":"address","internalType":"address"}],"stateMutability":"view"},{"type":"function","name":"orders","inputs":[{"name":"","type":"bytes32","internalType":"bytes32"}],"outputs":[{"name":"orderId","type":"bytes32","internalType":"bytes32"},{"name":"providerAuthority","type":"address","internalType":"address"},{"name":"side","type":"uint8","internalType":"uint8"},{"name":"pricePerRequest","type":"uint256","internalType":"uint256"},{"name":"taskType","type":"uint64","internalType":"uint64"},{"name":"quantity","type":"uint256","internalType":"uint256"},{"name":"filledQuantity","type":"uint256","internalType":"uint256"},{"name":"status","type":"uint8","internalType":"uint8"},{"name":"expiry","type":"uint256","internalType":"uint256"},{"name":"modelId","type":"string","internalType":"string"},{"name":"signature","type":"bytes","internalType":"bytes"}],"stateMutability":"view"},{"type":"function","name":"owner","inputs":[],"outputs":[{"name":"","type":"address","internalType":"address"}],"stateMutability":"view"},{"type":"function","name":"placeOrder","inputs":[{"name":"side","type":"uint8","internalType":"uint8"},{"name":"pricePerRequest","type":"uint256","internalType":"uint256"},{"name":"taskType","type":"uint64","internalType":"uint64"},{"name":"quantity","type":"uint256","internalType":"uint256"},{"name":"expiry","type":"uint256","internalType":"uint256"},{"name":"modelId","type":"string","internalType":"string"},{"name":"signature","type":"bytes","internalType":"bytes"}],"outputs":[{"name":"orderId","type":"bytes32","internalType":"bytes32"}],"stateMutability":"nonpayable"},{"type":"function","name":"providerMatches","inputs":[{"name":"","type":"address","internalType":"address"},{"name":"","type":"uint256","internalType":"uint256"}],"outputs":[{"name":"","type":"bytes32","internalType":"bytes32"}],"stateMutability":"view"},{"type":"function","name":"recordMatch","inputs":[{"name":"bidOrderId","type":"bytes32","internalType":"bytes32"},{"name":"askOrderId","type":"bytes32","internalType":"bytes32"},{"name":"price","type":"uint256","internalType":"uint256"},{"name":"quantity","type":"uint256","internalType":"uint256"},{"name":"consumer","type":"address","internalType":"address"},{"name":"provider","type":"address","internalType":"address"}],"outputs":[{"name":"matchId","type":"bytes32","internalType":"bytes32"}],"stateMutability":"nonpayable"},{"type":"function","name":"userOrders","inputs":[{"name":"","type":"address","internalType":"address"},{"name":"","type":"uint256","internalType":"uint256"}],"outputs":[{"name":"","type":"bytes32","internalType":"bytes32"}],"stateMutability":"view"},{"type":"event","name":"OrderCancelled","inputs":[{"name":"orderId","type":"bytes32","indexed":true,"internalType":"bytes32"},{"name":"maker","type":"address","indexed":true,"internalType":"address"}],"anonymous":false},{"type":"event","name":"OrderFilled","inputs":[{"name":"orderId","type":"bytes32","indexed":true,"internalType":"bytes32"},{"name":"maker","type":"address","indexed":true,"internalType":"address"},{"name":"filledQuantity","type":"uint256","indexed":false,"internalType":"uint256"}],"anonymous":false},{"type":"event","name":"OrderPlaced","inputs":[{"name":"orderId","type":"bytes32","indexed":true,"internalType":"bytes32"},{"name":"maker","type":"address","indexed":true,"internalType":"address"},{"name":"side","type":"uint8","indexed":false,"internalType":"enum IOrderBook.OrderSide"},{"name":"price","type":"uint256","indexed":false,"internalType":"uint256"},{"name":"quantity","type":"uint256","indexed":false,"internalType":"uint256"},{"name":"taskType","type":"uint64","indexed":false,"internalType":"uint64"}],"anonymous":false},{"type":"event","name":"OrdersMatched","inputs":[{"name":"matchId","type":"bytes32","indexed":true,"internalType":"bytes32"},{"name":"bidOrderId","type":"bytes32","indexed":true,"internalType":"bytes32"},{"name":"askOrderId","type":"bytes32","indexed":true,"internalType":"bytes32"},{"name":"price","type":"uint256","indexed":false,"internalType":"uint256"},{"name":"quantity","type":"uint256","indexed":false,"internalType":"uint256"},{"name":"consumer","type":"address","indexed":false,"internalType":"address"},{"name":"provider","type":"address","indexed":false,"internalType":"address"}],"anonymous":false},{"type":"error","name":"DuplicateOrderId","inputs":[]},{"type":"error","name":"InsufficientBalance","inputs":[]},{"type":"error","name":"InvalidOrderSide","inputs":[]},{"type":"error","name":"InvalidPrice","inputs":[]},{"type":"error","name":"InvalidQuantity","inputs":[]},{"type":"error","name":"InvalidSignature","inputs":[]},{"type":"error","name":"OrderExpired","inputs":[]},{"type":"error","name":"OrderNotFound","inputs":[]},{"type":"error","name":"OrderNotOpen","inputs":[]},{"type":"error","name":"UnauthorizedCancellation","inputs":[]}],"bytecode":{"object":"0x60c03461008f57601f61221138819003918201601f19168301916001600160401b0383118484101761009357808492604094855283398101031261008f57610052602061004b836100a7565b92016100a7565b9060805260a05260405161215590816100bc823960805181818161012b0152610a85015260a051818181610e1f015281816112f4015261151c0152f35b5f80fd5b634e487b7160e01b5f52604160045260245ffd5b51906001600160a01b038216820361008f5756fe60806040526004361015610011575f80fd5b5f3560e01c80631cea1be814611a0657806336d0c6c31461192f5780633ec2a76d146114ca5780635778472a1461148e5780635c1fd06e1461143b57806360543aa4146112d557806363c69f08146112635780636bedb4bc1461105d57806370b1f0251461100a5780637489ec2314610ee0578063856652e914610e975780638848236714610e4e5780638da5cb5b14610e0a578063950c0dcb146105f35780639c3f1e90146105055780639fe9ada31461047d578063a2d6411e14610400578063a3b4a6c71461027c578063ad9f20a614610261578063b081e3b814610209578063b9671690146101eb578063d574ed4d1461015e5763dfdfe9c814610116575f80fd5b3461015a575f36600319011261015a576040517f00000000000000000000000000000000000000000000000000000000000000006001600160a01b03168152602090f35b5f80fd5b3461015a576001600160401b03602061017636611c20565b939091165f526003825260405f208360405194859384378201908152030190206040519081602082549182815201915f5260205f20905f5b8181106101d5576101d1856101c581870382611d86565b60405191829182611e5f565b0390f35b82548452602090930192600192830192016101ae565b3461015a575f36600319011261015a5760206040516301e133808152f35b3461015a57604036600319011261015a57610222611d38565b6001600160a01b03165f9081526006602052604090208054602435919082101561015a5760209161025291611e36565b90549060031b1c604051908152f35b3461015a575f36600319011261015a57602060405160018152f35b3461015a576001600160401b03602061029436611c20565b93909161029f611faa565b50165f526002825260405f2083604051948593843782019081520301902080545f918290815b83811061039a57845f525f6020526101d160405f206009610388604051926102ec84611d4e565b8054845260ff600182015460018060a01b038116602087015260a01c166040850152600281015460608501526001600160401b036003820154166080850152600481015460a0850152600581015460c085015260ff60068201541660e085015260078101546101008501526040516103728161036b8160088601611ed0565b0382611d86565b61012085015261036b6040518094819301611ed0565b61014082015260405191829182611c87565b6103a48183611e36565b90549060031b1c5f525f60205260405f2060ff60068201541615806103f3575b6103d2575b506001016102c5565b60028101548481116103e5575b506103c9565b9054955092506001866103df565b50600781015442106103c4565b3461015a576001600160401b03602061041836611c20565b939091165f526002825260405f208360405194859384378201908152030190206040519081602082549182815201915f5260205f20905f5b818110610467576101d1856101c581870382611d86565b8254845260209093019260019283019201610450565b3461015a57602036600319011261015a576004355f52600460205261010060405f208054906001810154906002810154600382015460048301549060058401549260018060a01b0360068601541694600760018060a01b039101541695604051978852602088015260408701526060860152608085015260a084015260c083015260e0820152f35b3461015a57602036600319011261015a576004355f525f60205260405f2080546101d160096105e460018501549460028101546001600160401b03600383015416600483015460058401549060ff6006860154169260078601549461058f6040519761057f896105788160088501611ed0565b038a611d86565b610578604051809c819301611ed0565b60ff6040519c8d9c8d528c602060018060a01b03831691015260a01c1660408c015260608b015260808a015260a089015260c088015260e0870152610100860152610160610120860152610160850190611c63565b90838203610140850152611c63565b3461015a5760e036600319011261015a5760043560ff81169081810361015a57602435916044356001600160401b0381169081810361015a57606435906084359460a4356001600160401b03811161015a57610653903690600401611bf3565b909260c4356001600160401b03811161015a57610674903690600401611bf3565b9093881592838015610e00575b15610dbb5760018c10610d6b578715610d155760048911610cd157428b1180610ca6575b15610c615760018a14610a71575b60405160208101913360601b835260ff60f81b8460f81b1660348301528d60358301526001600160401b0360c01b9060c01b16605582015288605d8201528b607d8201528588609d8301376107236040609d8389810142838201524460bd82015203016020810184520182611d86565b519020998a5f525f60205260405f2054610a2c575f8b81526020819052604081208c815560018101805460ff60a01b1933166001600160a81b03199091161760a09590951b60ff60a01b1694909417909355600283018d905560038301805467ffffffffffffffff19168b17905560048301899055600583015560068201805460ff19169055600782015560088101906001600160401b0385116109a3576107d5856107cf8454611e98565b846120c1565b5f9185601f81116001146109c25780610805916009955f916109b7575b508160011b915f199060031b1c19161790565b90555b01906001600160401b0381116109a357899461082e826108288554611e98565b856120c1565b5f90601f831160011461093c5761085c92915f9183610931575b50508160011b915f199060031b1c19161790565b90555b335f5260016020526108748360405f2061203e565b156109045760206108a193865f526002825260405f2083604051948593843782019081520301902061203e565b60028310156108f0576020946040519384528584015260408301526060820152817fbafe06a2a79172c9a5c98ce32c1815520bfd795b4a042280bcf8d2540f9f9dae60803393a3604051908152f35b634e487b7160e01b5f52602160045260245ffd5b602061092c93865f526003825260405f2083604051948593843782019081520301902061203e565b6108a1565b013590508d80610848565b601f19831691845f5260205f20925f5b818110610988575090846001959493921061096f575b505050811b01905561085f565b01355f19600384901b60f8161c191690558c8080610962565b8284013585558e99506001909401936020928301920161094c565b634e487b7160e01b5f52604160045260245ffd5b90508a01355f6107f2565b505f81815260208120909387601f1981165b8b818810610a0f575060099650106109f6575b5050600186811b019055610808565b8901355f19600389901b60f8161c191690558d806109e7565b8301358455602096870196600190940193909201918991506109d4565b60405162461bcd60e51b815260206004820152601d60248201527f4f72646572426f6f6b3a206475706c6963617465206f726465722049440000006044820152606490fd5b60405162ec757960e11b81523360048201527f00000000000000000000000000000000000000000000000000000000000000006001600160a01b031690602081602481855afa908115610bba575f91610c42575b506001600160a01b031615610bf25760405162ec757960e11b8152336004820152602081602481855afa8015610bba576020915f91610bc5575b50604051639b5e1a3b60e01b81526001600160a01b03909116600482015291829060249082905afa908115610bba575f91610b7f575b506106b35760405162461bcd60e51b815260206004820152601e60248201527f4f72646572426f6f6b3a2070726f7669646572206e6f742061637469766500006044820152606490fd5b90506020813d602011610bb2575b81610b9a60209383611d86565b8101031261015a5751801515810361015a578d610b35565b3d9150610b8d565b6040513d5f823e3d90fd5b610be59150823d8411610beb575b610bdd8183611d86565b8101906120a2565b8f610aff565b503d610bd3565b60405162461bcd60e51b815260206004820152602260248201527f4f72646572426f6f6b3a2070726f7669646572206e6f74207265676973746572604482015261195960f21b6064820152608490fd5b610c5b915060203d602011610beb57610bdd8183611d86565b8e610ac5565b60405162461bcd60e51b815260206004820152601960248201527f4f72646572426f6f6b3a20696e76616c696420657870697279000000000000006044820152606490fd5b506301e133804201804211610cbd578b11156106a5565b634e487b7160e01b5f52601160045260245ffd5b606460405162461bcd60e51b815260206004820152602060248201527f56616c69646174696f6e4c69623a20696e76616c6964207461736b20747970656044820152fd5b60405162461bcd60e51b815260206004820152602860248201527f56616c69646174696f6e4c69623a207175616e74697479206d75737420626520604482015267706f73697469766560c01b6064820152608490fd5b60405162461bcd60e51b815260206004820152602260248201527f56616c69646174696f6e4c69623a2070726963652062656c6f77206d696e696d604482015261756d60f01b6064820152608490fd5b60405162461bcd60e51b815260206004820152601760248201527f4f72646572426f6f6b3a20696e76616c696420736964650000000000000000006044820152606490fd5b5060018a14610681565b3461015a575f36600319011261015a576040517f00000000000000000000000000000000000000000000000000000000000000006001600160a01b03168152602090f35b3461015a57604036600319011261015a57610e67611d38565b6001600160a01b03165f9081526005602052604090208054602435919082101561015a5760209161025291611e36565b3461015a57604036600319011261015a57610eb0611d38565b6001600160a01b03165f9081526001602052604090208054602435919082101561015a5760209161025291611e36565b3461015a57602036600319011261015a57600435805f525f602052610f0a60405f20541515611f51565b5f81815260208190526040902060018101546001600160a01b03163303610fc55760060160ff8154168015908115610fba575b5015610f7657805460ff1916600317905533907fa6eb7cdc219e1518ced964e9a34e61d68a94e4f1569db3e84256ba981ba527535f80a3005b606460405162461bcd60e51b815260206004820152602060248201527f4f72646572426f6f6b3a206f72646572206e6f742063616e63656c6c61626c656044820152fd5b600191501483610f3d565b60405162461bcd60e51b815260206004820152601760248201527f4f72646572426f6f6b3a20756e617574686f72697a65640000000000000000006044820152606490fd5b3461015a576001600160401b0360208061102336611da7565b949091165f526003825260405f20604051938285935191829101845e820190815203019020805482101561015a5760209161025291611e36565b3461015a57604036600319011261015a57611076611d38565b6001600160a01b03165f908152600560205260409020805460243561109a82612077565b926110a86040519485611d86565b828452601f196110b784612077565b015f5b81811061121c5750505f5b83811061116a57846040518091602082016020835281518091526020604084019201905f5b8181106110f8575050500390f35b919350916020610100600192865180518252838101518483015260408101516040830152606081015160608301526080810151608083015260a081015160a0830152848060a01b0360c08201511660c083015260e0858060a01b039101511660e08201520194019101918493926110ea565b8061117760019284611e36565b90549060031b1c5f52600460205260405f20600581015490858210156111a0575b5050016110c5565b604051916111ad83611d6a565b8154835284820154602084015260028201546040840152600382015460608401526004820154608084015260a0830152838060a01b0360068201541660c08301526007848060a01b039101541660e0820152611209828861208e565b52611214818761208e565b508680611198565b60209060405161122b81611d6a565b5f81525f838201525f60408201525f60608201525f60808201525f60a08201525f60c08201525f60e0820152828289010152016110ba565b3461015a57602036600319011261015a576001600160a01b03611284611d38565b165f52600160205260405f206040519081602082549182815201915f5260205f20905f5b8181106112bf576101d1856101c581870382611d86565b82548452602090930192600192830192016112a8565b3461015a576001600160401b036112eb36611c20565b929091611322337f00000000000000000000000000000000000000000000000000000000000000006001600160a01b031614611ffb565b1690815f52600260205260405f20602060405180928685833786820190815203019020905f5b82548110156113af578061135e60019285611e36565b90549060031b1c5f525f602052600760405f200154421015611381575b01611348565b61138b8185611e36565b90549060031b1c5f525f602052600660405f2001600360ff1982541617905561137b565b84602083865f526003825260405f208360405194859384378201908152030190205f5b815481101561143957806113e860019284611e36565b90549060031b1c5f525f602052600760405f20015442101561140b575b016113d2565b6114158184611e36565b90549060031b1c5f525f602052600660405f2001600360ff19825416179055611405565b005b3461015a576001600160401b0360208061145436611da7565b949091165f526002825260405f20604051938285935191829101845e820190815203019020805482101561015a5760209161025291611e36565b3461015a57602036600319011261015a576114a7611faa565b506004355f525f6020526101d160405f206009610388604051926102ec84611d4e565b3461015a5760c036600319011261015a576084356001600160a01b038116906044359060243590600435906064359085900361015a5760a4356001600160a01b038116949085900361015a5761154a337f00000000000000000000000000000000000000000000000000000000000000006001600160a01b031614611ffb565b825f525f60205260405f2090845f525f60205260405f20908254156118ea578154156118a55760ff600184015460a01c1661186057600160ff8184015460a01c160361181b5760028301546002830154116117d6576001600160401b036003840154166001600160401b0360038401541603611791576040516020810190868252876040820152856060820152426080820152608081526115ec60a082611d86565b51902096875f52600460205260405f205461174c5760209888956006608095817faeee6ea58e45344a39bea2ef173796eb1458c8a203f8e9dc9661a92cff6318429860078b8e8e825f5260206004905260405f2092835560018301556002820155896003820155866004820155426005820155838101886bffffffffffffffffffffffff60a01b82541617905501876bffffffffffffffffffffffff60a01b825416179055600581016116a0868254611f9d565b9081905560048201541161173b5701805460ff191660021790555b600581016116ca848254611f9d565b9081905560048201541161172a5701805460ff191660021790555b825f5260058b526116f98760405f2061203e565b815f5260068b5261170d8760405f2061203e565b6040519384528a84015260408301526060820152a4604051908152f35b01805460ff191660011790556116e5565b01805460ff191660011790556116bb565b60405162461bcd60e51b815260206004820152601d60248201527f4f72646572426f6f6b3a206475706c6963617465206d617463682049440000006044820152606490fd5b60405162461bcd60e51b815260206004820152601d60248201527f4f72646572426f6f6b3a207461736b2074797065206d69736d617463680000006044820152606490fd5b60405162461bcd60e51b815260206004820152601e60248201527f4f72646572426f6f6b3a206269642070726963652062656c6f772061736b00006044820152606490fd5b60405162461bcd60e51b815260206004820152601b60248201527f4f72646572426f6f6b3a206e6f7420616e2061736b206f7264657200000000006044820152606490fd5b60405162461bcd60e51b815260206004820152601a60248201527f4f72646572426f6f6b3a206e6f74206120626964206f726465720000000000006044820152606490fd5b60405162461bcd60e51b815260206004820152601e60248201527f4f72646572426f6f6b3a2061736b206f72646572206e6f7420666f756e6400006044820152606490fd5b60405162461bcd60e51b815260206004820152601e60248201527f4f72646572426f6f6b3a20626964206f72646572206e6f7420666f756e6400006044820152606490fd5b3461015a576001600160401b03602061194736611c20565b939091611952611faa565b50165f526003825260405f2083604051948593843782019081520301902080545f915f1990835b8381106119a057845f525f6020526101d160405f206009610388604051926102ec84611d4e565b6119aa8183611e36565b90549060031b1c5f525f60205260405f2060ff60068201541615806119f9575b6119d8575b50600101611979565b60028101548481106119eb575b506119cf565b9054955092506001866119e5565b50600781015442106119ca565b3461015a57604036600319011261015a5760043560243590805f525f602052611a3460405f20541515611f51565b805f525f60205260405f2090600682019160ff8354168015908115611be8575b5015611ba3576007810154421015611b5e578315611b07576004810154926005820193845494858203828111610cbd57602097611a9b9180821015611afe57508097611f9d565b9081905510611aee57805460ff191660021790555b6001808060a01b0391015416907f091df57229697c69000d4036c8c123d47d4b61cbb946bdbeaa454f31a560a04484604051858152a3604051908152f35b805460ff19166001179055611ab0565b90508097611f9d565b60405162461bcd60e51b815260206004820152602960248201527f4f72646572426f6f6b3a2066696c6c207175616e74697479206d75737420626560448201526820706f73697469766560b81b6064820152608490fd5b60405162461bcd60e51b815260206004820152601860248201527f4f72646572426f6f6b3a206f72646572206578706972656400000000000000006044820152606490fd5b60405162461bcd60e51b815260206004820152601d60248201527f4f72646572426f6f6b3a206f72646572206e6f742066696c6c61626c650000006044820152606490fd5b600191501485611a54565b9181601f8401121561015a578235916001600160401b03831161015a576020838186019501011161015a57565b90604060031983011261015a576004356001600160401b038116810361015a5791602435906001600160401b03821161015a57611c5f91600401611bf3565b9091565b805180835260209291819084018484015e5f828201840152601f01601f1916010190565b90611d3591602081528151602082015260018060a01b03602083015116604082015260ff6040830151166060820152606082015160808201526001600160401b0360808301511660a082015260a082015160c082015260c082015160e082015260ff60e083015116610100820152610100820151610120820152610140611d1f61012084015161016083850152610180840190611c63565b92015190610160601f1982850301910152611c63565b90565b600435906001600160a01b038216820361015a57565b61016081019081106001600160401b038211176109a357604052565b61010081019081106001600160401b038211176109a357604052565b90601f801991011681019081106001600160401b038211176109a357604052565b90606060031983011261015a576004356001600160401b038116810361015a57916024356001600160401b03811161015a578160238201121561015a578060040135906001600160401b0382116109a35760405192611e10601f8401601f191660200185611d86565b8284526024838301011161015a57815f9260246020930183860137830101529060443590565b8054821015611e4b575f5260205f2001905f90565b634e487b7160e01b5f52603260045260245ffd5b60206040818301928281528451809452019201905f5b818110611e825750505090565b8251845260209384019390920191600101611e75565b90600182811c92168015611ec6575b6020831014611eb257565b634e487b7160e01b5f52602260045260245ffd5b91607f1691611ea7565b5f9291815491611edf83611e98565b8083529260018116908115611f345750600114611efb57505050565b5f9081526020812093945091925b838310611f1a575060209250010190565b600181602092949394548385870101520191019190611f09565b915050602093945060ff929192191683830152151560051b010190565b15611f5857565b60405162461bcd60e51b815260206004820152601a60248201527f4f72646572426f6f6b3a206f72646572206e6f7420666f756e640000000000006044820152606490fd5b91908201809211610cbd57565b60405190611fb782611d4e565b6060610140835f81525f60208201525f60408201525f838201525f60808201525f60a08201525f60c08201525f60e08201525f610100820152826101208201520152565b1561200257565b60405162461bcd60e51b815260206004820152601460248201527327b93232b92137b7b59d103737ba1037bbb732b960611b6044820152606490fd5b8054680100000000000000008110156109a35761206091600182018155611e36565b819291549060031b91821b915f19901b1916179055565b6001600160401b0381116109a35760051b60200190565b8051821015611e4b5760209160051b010190565b9081602091031261015a57516001600160a01b038116810361015a5790565b919091601f83116120d2575b505050565b8183116120de57505050565b5f5260205f206020601f830160051c9210612117575b81601f9101920160051c03905f5b828110156120cd575f82820155600101612102565b5f91506120f456fea26469706673582212207e97894788857e3dd8f12dd2c406a2c3b4745496f65ab8daa37dd76574fef1a264736f6c63430008230033","linkReferences":{}},"methodIdentifiers":{"MAX_EXPIRY()":"b9671690","MIN_PRICE()":"ad9f20a6","activeAsks(uint64,string,uint256)":"70b1f025","activeBids(uint64,string,uint256)":"5c1fd06e","cancelOrder(bytes32)":"7489ec23","cleanupExpiredOrders(uint64,string)":"60543aa4","computeRegistry()":"dfdfe9c8","consumerMatches(address,uint256)":"b081e3b8","fillOrder(bytes32,uint256)":"1cea1be8","getActiveAsks(uint64,string)":"d574ed4d","getActiveBids(uint64,string)":"a2d6411e","getBestAsk(uint64,string)":"36d0c6c3","getBestBid(uint64,string)":"a3b4a6c7","getMatches(address,uint256)":"6bedb4bc","getOrder(bytes32)":"5778472a","getUserOrders(address)":"63c69f08","matches(bytes32)":"9fe9ada3","orders(bytes32)":"9c3f1e90","owner()":"8da5cb5b","placeOrder(uint8,uint256,uint64,uint256,uint256,string,bytes)":"950c0dcb","providerMatches(address,uint256)":"88482367","recordMatch(bytes32,bytes32,uint256,uint256,address,address)":"3ec2a76d","userOrders(address,uint256)":"856652e9"},"id":2}