{"abi":[{"type":"constructor","inputs":[{"name":"_owner","type":"address","internalType":"address"},{"name":"_feeRecipient","type":"address","internalType":"address"},{"name":"_minimumStake","type":"uint256","internalType":"uint256"}],"stateMutability":"nonpayable"},{"type":"receive","stateMutability":"payable"},{"type":"function","name":"MAX_CONTEXT_TOKENS","inputs":[],"outputs":[{"name":"","type":"uint256","internalType":"uint256"}],"stateMutability":"view"},{"type":"function","name":"MIN_TPS","inputs":[],"outputs":[{"name":"","type":"uint256","internalType":"uint256"}],"stateMutability":"view"},{"type":"function","name":"authorityToProvider","inputs":[{"name":"","type":"address","internalType":"address"}],"outputs":[{"name":"","type":"address","internalType":"address"}],"stateMutability":"view"},{"type":"function","name":"depositStake","inputs":[{"name":"providerAddress","type":"address","internalType":"address"}],"outputs":[],"stateMutability":"payable"},{"type":"function","name":"emergencyWithdraw","inputs":[],"outputs":[],"stateMutability":"nonpayable"},{"type":"function","name":"feeRecipient","inputs":[],"outputs":[{"name":"","type":"address","internalType":"address"}],"stateMutability":"view"},{"type":"function","name":"getProvider","inputs":[{"name":"providerAddress","type":"address","internalType":"address"}],"outputs":[{"name":"","type":"tuple","internalType":"struct IComputeRegistry.Provider","components":[{"name":"authority","type":"address","internalType":"address"},{"name":"qvacPeerId","type":"bytes32","internalType":"bytes32"},{"name":"name","type":"string","internalType":"string"},{"name":"taskTypes","type":"uint16","internalType":"uint16"},{"name":"tiers","type":"tuple[]","internalType":"struct IComputeRegistry.PricingTier[]","components":[{"name":"modelId","type":"string","internalType":"string"},{"name":"pricePerRequest","type":"uint256","internalType":"uint256"},{"name":"minTPS","type":"uint256","internalType":"uint256"},{"name":"maxContextTokens","type":"uint256","internalType":"uint256"}]},{"name":"jobsCompleted","type":"uint64","internalType":"uint64"},{"name":"totalEarned","type":"uint256","internalType":"uint256"},{"name":"totalStaked","type":"uint256","internalType":"uint256"},{"name":"status","type":"uint8","internalType":"uint8"},{"name":"registeredAt","type":"uint256","internalType":"uint256"},{"name":"updatedAt","type":"uint256","internalType":"uint256"}]}],"stateMutability":"view"},{"type":"function","name":"getProviderByAuthority","inputs":[{"name":"authority","type":"address","internalType":"address"}],"outputs":[{"name":"providerAddress","type":"address","internalType":"address"}],"stateMutability":"view"},{"type":"function","name":"getProviderByPeerId","inputs":[{"name":"qvacPeerId","type":"bytes32","internalType":"bytes32"}],"outputs":[{"name":"providerAddress","type":"address","internalType":"address"}],"stateMutability":"view"},{"type":"function","name":"getProviderStatus","inputs":[{"name":"providerAddress","type":"address","internalType":"address"}],"outputs":[{"name":"","type":"uint8","internalType":"enum IComputeRegistry.ProviderStatus"}],"stateMutability":"view"},{"type":"function","name":"getStake","inputs":[{"name":"providerAddress","type":"address","internalType":"address"}],"outputs":[{"name":"","type":"uint256","internalType":"uint256"}],"stateMutability":"view"},{"type":"function","name":"isActiveProvider","inputs":[{"name":"providerAddress","type":"address","internalType":"address"}],"outputs":[{"name":"","type":"bool","internalType":"bool"}],"stateMutability":"view"},{"type":"function","name":"minimumStake","inputs":[],"outputs":[{"name":"","type":"uint256","internalType":"uint256"}],"stateMutability":"view"},{"type":"function","name":"minimumStakeAmount","inputs":[],"outputs":[{"name":"","type":"uint256","internalType":"uint256"}],"stateMutability":"view"},{"type":"function","name":"owner","inputs":[],"outputs":[{"name":"","type":"address","internalType":"address"}],"stateMutability":"view"},{"type":"function","name":"pauseProvider","inputs":[{"name":"providerAddress","type":"address","internalType":"address"}],"outputs":[],"stateMutability":"nonpayable"},{"type":"function","name":"peerIdToProvider","inputs":[{"name":"","type":"bytes32","internalType":"bytes32"}],"outputs":[{"name":"","type":"address","internalType":"address"}],"stateMutability":"view"},{"type":"function","name":"providers","inputs":[{"name":"","type":"address","internalType":"address"}],"outputs":[{"name":"authority","type":"address","internalType":"address"},{"name":"qvacPeerId","type":"bytes32","internalType":"bytes32"},{"name":"name","type":"string","internalType":"string"},{"name":"taskTypes","type":"uint16","internalType":"uint16"},{"name":"jobsCompleted","type":"uint64","internalType":"uint64"},{"name":"totalEarned","type":"uint256","internalType":"uint256"},{"name":"totalStaked","type":"uint256","internalType":"uint256"},{"name":"status","type":"uint8","internalType":"uint8"},{"name":"registeredAt","type":"uint256","internalType":"uint256"},{"name":"updatedAt","type":"uint256","internalType":"uint256"}],"stateMutability":"view"},{"type":"function","name":"registerProvider","inputs":[{"name":"qvacPeerId","type":"bytes32","internalType":"bytes32"},{"name":"name","type":"string","internalType":"string"},{"name":"taskTypes","type":"uint16","internalType":"uint16"},{"name":"tiers","type":"tuple[]","internalType":"struct IComputeRegistry.PricingTier[]","components":[{"name":"modelId","type":"string","internalType":"string"},{"name":"pricePerRequest","type":"uint256","internalType":"uint256"},{"name":"minTPS","type":"uint256","internalType":"uint256"},{"name":"maxContextTokens","type":"uint256","internalType":"uint256"}]},{"name":"stakeAmount","type":"uint256","internalType":"uint256"}],"outputs":[{"name":"providerAddress","type":"address","internalType":"address"}],"stateMutability":"payable"},{"type":"function","name":"resumeProvider","inputs":[{"name":"providerAddress","type":"address","internalType":"address"}],"outputs":[],"stateMutability":"nonpayable"},{"type":"function","name":"rotatePeerId","inputs":[{"name":"providerAddress","type":"address","internalType":"address"},{"name":"newQvacPeerId","type":"bytes32","internalType":"bytes32"}],"outputs":[],"stateMutability":"nonpayable"},{"type":"function","name":"setFeeRecipient","inputs":[{"name":"newFeeRecipient","type":"address","internalType":"address"}],"outputs":[],"stateMutability":"nonpayable"},{"type":"function","name":"setMinimumStake","inputs":[{"name":"newMinimumStake","type":"uint256","internalType":"uint256"}],"outputs":[],"stateMutability":"nonpayable"},{"type":"function","name":"slashProvider","inputs":[{"name":"providerAddress","type":"address","internalType":"address"},{"name":"proof","type":"bytes","internalType":"bytes"}],"outputs":[],"stateMutability":"nonpayable"},{"type":"function","name":"stakes","inputs":[{"name":"","type":"address","internalType":"address"}],"outputs":[{"name":"","type":"uint256","internalType":"uint256"}],"stateMutability":"view"},{"type":"function","name":"updateProvider","inputs":[{"name":"providerAddress","type":"address","internalType":"address"},{"name":"name","type":"string","internalType":"string"},{"name":"taskTypes","type":"uint16","internalType":"uint16"},{"name":"tiers","type":"tuple[]","internalType":"struct IComputeRegistry.PricingTier[]","components":[{"name":"modelId","type":"string","internalType":"string"},{"name":"pricePerRequest","type":"uint256","internalType":"uint256"},{"name":"minTPS","type":"uint256","internalType":"uint256"},{"name":"maxContextTokens","type":"uint256","internalType":"uint256"}]}],"outputs":[],"stateMutability":"nonpayable"},{"type":"function","name":"withdrawStake","inputs":[{"name":"providerAddress","type":"address","internalType":"address"},{"name":"amount","type":"uint256","internalType":"uint256"}],"outputs":[],"stateMutability":"nonpayable"},{"type":"event","name":"PeerIdRotated","inputs":[{"name":"authority","type":"address","indexed":true,"internalType":"address"},{"name":"oldPeerId","type":"bytes32","indexed":false,"internalType":"bytes32"},{"name":"newPeerId","type":"bytes32","indexed":false,"internalType":"bytes32"}],"anonymous":false},{"type":"event","name":"ProviderPaused","inputs":[{"name":"authority","type":"address","indexed":true,"internalType":"address"}],"anonymous":false},{"type":"event","name":"ProviderRegistered","inputs":[{"name":"authority","type":"address","indexed":true,"internalType":"address"},{"name":"qvacPeerId","type":"bytes32","indexed":true,"internalType":"bytes32"},{"name":"name","type":"string","indexed":false,"internalType":"string"}],"anonymous":false},{"type":"event","name":"ProviderResumed","inputs":[{"name":"authority","type":"address","indexed":true,"internalType":"address"}],"anonymous":false},{"type":"event","name":"ProviderSlashed","inputs":[{"name":"authority","type":"address","indexed":true,"internalType":"address"},{"name":"proof","type":"bytes","indexed":false,"internalType":"bytes"}],"anonymous":false},{"type":"event","name":"ProviderUpdated","inputs":[{"name":"authority","type":"address","indexed":true,"internalType":"address"},{"name":"name","type":"string","indexed":false,"internalType":"string"},{"name":"taskTypes","type":"uint16","indexed":false,"internalType":"uint16"},{"name":"tiers","type":"tuple[]","indexed":false,"internalType":"struct IComputeRegistry.PricingTier[]","components":[{"name":"modelId","type":"string","internalType":"string"},{"name":"pricePerRequest","type":"uint256","internalType":"uint256"},{"name":"minTPS","type":"uint256","internalType":"uint256"},{"name":"maxContextTokens","type":"uint256","internalType":"uint256"}]}],"anonymous":false},{"type":"event","name":"StakeDeposited","inputs":[{"name":"authority","type":"address","indexed":true,"internalType":"address"},{"name":"amount","type":"uint256","indexed":false,"internalType":"uint256"}],"anonymous":false},{"type":"event","name":"StakeWithdrawn","inputs":[{"name":"authority","type":"address","indexed":true,"internalType":"address"},{"name":"amount","type":"uint256","indexed":false,"internalType":"uint256"}],"anonymous":false},{"type":"error","name":"AlreadySlashed","inputs":[]},{"type":"error","name":"InsufficientStake","inputs":[]},{"type":"error","name":"InvalidPricingTier","inputs":[]},{"type":"error","name":"InvalidStatusTransition","inputs":[]},{"type":"error","name":"InvalidTaskTypes","inputs":[]},{"type":"error","name":"NotAuthorized","inputs":[]},{"type":"error","name":"ProviderAlreadyRegistered","inputs":[]},{"type":"error","name":"ProviderNotFound","inputs":[]}],"bytecode":{"object":"0x60a0346100b557601f61225338819003918201601f19168301916001600160401b038311848410176100b9578084926060946040528339810103126100b557610047816100cd565b906040610056602083016100cd565b910151608092909252600580546001600160a01b0319166001600160a01b0390921691909117905560045560405161217190816100e28239608051818181610243015281816102a90152818161071e015281816116e101526118080152f35b5f80fd5b634e487b7160e01b5f52604160045260245ffd5b51906001600160a01b03821682036100b55756fe608080604052600436101561001c575b50361561001a575f80fd5b005b5f3560e01c90816301d8eaf214611a4c575080630787bc27146119805780630a1a092a1461187e57806315662cce1461183e57806316934fc414610c16578063233e9903146117f157806331f0fda2146116a2578063361a72201461152c578063469048401461150457806354629b8e14610f1657806355f21eb714610c4e5780636b036f45146101515780637a76646014610c1657806381a04e2914610bf957806382fb9c8414610bde57806383eeed8b1461074d5780638da5cb5b1461070957806396866dfd1461060a578063980d38de146105985780639b5e1a3b146105ca578063a24ac26014610598578063c60662721461035d578063d646a1da14610302578063db2e21bc14610293578063e74b981b14610224578063e7a97562146101725763ec5ffac214610151575f61000f565b3461016e575f36600319011261016e576020600454604051908152f35b5f80fd5b3461016e57602036600319011261016e576001600160a01b03610193611a8b565b16805f525f6020526101b260018060a01b0360405f2054163314611d71565b805f525f6020526101ce60ff600860405f200154161515611c48565b5f525f60205260405f20600881016101ec600160ff83541614611ca0565b600260ff19825416179055600a42910155337ff7e26628e9609f0e0ec8d12172339fb16636acfb7bf2c518bd272c68ff91d8e95f80a2005b3461016e57602036600319011261016e5761023d611a8b565b610271337f00000000000000000000000000000000000000000000000000000000000000006001600160a01b031614611d05565b600580546001600160a01b0319166001600160a01b0392909216919091179055005b3461016e575f36600319011261016e575f8080807f00000000000000000000000000000000000000000000000000000000000000006001600160a01b03166102dc338214611d05565b47908282156102f9575bf1156102ee57005b6040513d5f823e3d90fd5b506108fc6102e6565b3461016e57602036600319011261016e576001600160a01b03610323611a8b565b165f525f60205260ff600860405f20015416600481101561034957602090604051908152f35b634e487b7160e01b5f52602160045260245ffd5b3461016e57604036600319011261016e57610376611a8b565b6001600160a01b039081165f818152602081905260409020546024359261039f91163314611d71565b805f525f6020526103bb60ff600860405f200154161515611c48565b805f525f60205260405f209060ff6008830154166001811490811561058d575b501561054857805f5260036020528260405f2054106104f757805f52600360205261040a8360405f2054612088565b6004541161049a575f52600360205260405f20610428838254612088565b905560078101610439838254612088565b90555f8080808560018060a01b03865416828215610491575bf1156102ee57546040519182526001600160a01b0316907f8108595eb6bad3acefa9da467d90cc2217686d5c5ac85460f8b7849c840645fc90602090a2005b506108fc610452565b60405162461bcd60e51b815260206004820152602f60248201527f436f6d7075746552656769737472793a20776f756c642066616c6c2062656c6f60448201526e77206d696e696d756d207374616b6560881b6064820152608490fd5b60405162461bcd60e51b815260206004820152602360248201527f436f6d7075746552656769737472793a20696e73756666696369656e74207374604482015262616b6560e81b6064820152608490fd5b60405162461bcd60e51b815260206004820152601d60248201527f436f6d7075746552656769737472793a2077726f6e67207374617475730000006044820152606490fd5b6002915014846103db565b3461016e57602036600319011261016e576004355f526002602052602060018060a01b0360405f205416604051908152f35b3461016e57602036600319011261016e576001600160a01b036105eb611a8b565b165f525f6020526020600160ff600860405f2001541614604051908152f35b3461016e57602036600319011261016e576001600160a01b0361062b611a8b565b16805f525f60205261064a60018060a01b0360405f2054163314611d71565b805f525f60205261066660ff600860405f200154161515611c48565b5f525f60205260405f2060088101600260ff825416036106b857600160ff19825416179055600a42910155337f17072223cd59a8fd65dcef1ac0d741ff86bc30c0a3bef73604cf2c245bc348ee5f80a2005b60405162461bcd60e51b8152602060048201526024808201527f436f6d7075746552656769737472793a2070726f7669646572206e6f742070616044820152631d5cd95960e21b6064820152608490fd5b3461016e575f36600319011261016e576040517f00000000000000000000000000000000000000000000000000000000000000006001600160a01b03168152602090f35b3461016e57608036600319011261016e57610766611a8b565b6024356001600160401b03811161016e57610785903690600401611bda565b61078d611c07565b916064356001600160401b03811161016e576107ad903690600401611c18565b91909460018060a01b0316805f525f6020526107d660018060a01b0360405f2054163314611d71565b805f525f6020526107f260ff600860405f200154161515611c48565b5f525f60205260405f2093610810600160ff60088801541614611ca0565b83610ab0575b61ffff169384610a9c575b82610930575b9061084491600a4291015560405193606085526060850191611d51565b92602083015281830360408301528083526020830160208260051b85010193855f91607e1982360301905b85841061089f57337fe4e028ef1d82a0f8420b565e0e846f8fe61d73e7a0abe65becdc5e0bf86dc011888a0389a2005b909192939496601f1982820301865288358381121561016e5784018035601e198236030181121561016e57810190602082359201906001600160401b03831161016e57823603821361016e5783606080610908602096958796608060019a526080860191611d51565b8585013584870152604080860135908501529301359101529a0199989601940192919061086f565b5f5b838110610a2957506004810180545f825580610977575b505f5b84811061095a575050610827565b8061097161096b600193888c611e4d565b84611f2f565b0161094c565b600281901b906001600160fe1b03811603610a1557815f5260205f205f5b8281106109a3575050610949565b805f600360049385016109b68154611aa1565b806109d1575b50826001820155826002820155015501610995565b601f81116001146109e757508281555b8e6109bc565b81845260208420610a0491601f0160051c85190190600101611f14565b8083528260208120818355556109e1565b634e487b7160e01b5f52601160045260245ffd5b80610a52610a4d610a46610a40600195898d611e4d565b80611e83565b3691611e08565b612095565b610a696020610a6283888c611e4d565b01356120e2565b610a796040610a6283888c611e4d565b610a96620186a06060610a8d84898d611e4d565b01351115611eb5565b01610932565b60038101805461ffff191686179055610821565b60028501906001600160401b038511610bca57610acd8254611aa1565b601f8111610b87575b505f9185601f8111600114610b1d5780610b089161ffff955f91610b12575b508160011b915f199060031b1c19161790565b90555b9050610816565b90508601358b610af5565b505f81815260208120909387601f1981165b808710610b695761ffff965010610b50575b5050600186811b019055610b0b565b8501355f19600389901b60f8161c191690558880610b41565b87830135845560209687019660019094019390920191899150610b2f565b85811115610ad657610bbc90835f5260205f2090601f880160051c9060208910610bc2575b601f82910160051c039101611f14565b87610ad6565b5f9150610bac565b634e487b7160e01b5f52604160045260245ffd5b3461016e575f36600319011261016e57602060405160018152f35b3461016e575f36600319011261016e576020604051620186a08152f35b3461016e57602036600319011261016e576001600160a01b03610c37611a8b565b165f526003602052602060405f2054604051908152f35b3461016e57602036600319011261016e57610c67611a8b565b5f610140604051610c7781611ad9565b82815282602082015260606040820152826060820152606060808201528260a08201528260c08201528260e08201528261010082015282610120820152015260018060a01b03165f525f60205260405f20604051610cd481611ad9565b81546001600160a01b03168152600182015460208201908152610cf960028401611b16565b906040830191825261ffff600385015416936060840194855260048101928354936001600160401b038511610bca5760405194610d3c60208260051b0187611af5565b80865260208601915f5260205f20915f905b828210610ebc5750505050608085019384526001600160401b036005830154169360a08601948552600683015460c0870190815260078401549160e0880192835261ffff610df260ff600888015416956101008b01968752600a6009890154986101208d01998a520154986101408c01998a526040519b60208d5260018060a01b0390511660208d01525160408c01525161016060608c01526101808b0190611bb6565b99511660808901525195601f19888a030160a08901528651808a5260208a01906020808260051b8d01019901915f905b828210610e695784516001600160401b031660c08d0152855160e08d015286516101008d0152875160ff166101208d015288516101408d015289516101608d01528b8b038cf35b909192996020806001928f601f199082030185528d5190606080610e968451608085526080850190611bb6565b9385810151868501526040810151604085015201519101529c0192019201909291610e22565b604051608081018181106001600160401b03821117610bca57600192600492602092604052610eea88611b16565b815284880154838201526002880154604082015260038801546060820152815201940191019092610d4e565b60a036600319011261016e576004356024356001600160401b03811161016e57610f44903690600401611bda565b610f4f929192611c07565b916064356001600160401b03811161016e57610f6f903690600401611c18565b9290936084359360045485106114b35784341061145d57610f94610a4d36858a611e08565b61ffff8216156113ff57801561139e57610faf841515611dbd565b5f848152600260205260409020546001600160a01b031661134557335f908152600160205260409020546001600160a01b03166112e8575f5b8181106112975750604051602081013360601b815285603483015242605483015260548252611018607483611af5565b905190206001600160a01b03165f81815260208190526040902080546001600160a01b031916331781556001810186905590969092600284016001600160401b038611610bca576110698154611aa1565b601f811161125d575b505f86601f81116001146111f4578061109e925f916111e957508160011b915f199060031b1c19161790565b90559190915b61ffff60038501911661ffff198254161790555f9060048401915b8181106111cc57505050506111966020968260057ffadb4c95877e59e468898a2542fbe344626c8cdfef1e595f9f65af97d82d4bc994016001600160401b031981541690555f600682015586600782015560088101600160ff19825416179055426009820155600a42910155335f526001885260405f2060018060a01b0388166001600160601b0360a01b825416179055845f526002885260405f2060018060a01b0388166001600160601b0360a01b825416179055865f52600388528560405f205560405191829189835233958a840191611d51565b0390a36040519081527f0a7bb2e28cc4698aac06db79cf9163bfcc20719286cf59fa7d492ceda1b8edc2833392a2604051908152f35b806111e36111dd6001938588611e4d565b85611f2f565b016110bf565b90508c01358d610af5565b50601f19871690825f528760205f20928d5f905b82821061124257505010611229575b5050600186811b0190559190916110a4565b8b01355f19600389901b60f8161c191690558a80611217565b84013585556001909401936020938401938b9350018e611208565b868111156110725761129190825f5260205f2090601f890160051c9060208a10610bc257601f82910160051c039101611f14565b8a611072565b806112ae610a4d610a46610a40600195878d611e4d565b6112be6020610a6283868c611e4d565b6112ce6040610a6283868c611e4d565b6112e2620186a06060610a8d84878d611e4d565b01610fe8565b60405162461bcd60e51b815260206004820152602f60248201527f436f6d7075746552656769737472793a20617574686f7269747920616c72656160448201526e323c903430b990383937bb34b232b960891b6064820152608490fd5b60405162461bcd60e51b815260206004820152602b60248201527f436f6d7075746552656769737472793a207065657220494420616c726561647960448201526a081c9959da5cdd195c995960aa1b6064820152608490fd5b60405162461bcd60e51b815260206004820152603360248201527f436f6d7075746552656769737472793a206174206c65617374206f6e652070726044820152721a58da5b99c81d1a595c881c995c5d5a5c9959606a1b6064820152608490fd5b60405162461bcd60e51b815260206004820152603060248201527f436f6d7075746552656769737472793a206174206c65617374206f6e6520746160448201526f1cdac81d1e5c19481c995c5d5a5c995960821b6064820152608490fd5b60405162461bcd60e51b815260206004820152602860248201527f436f6d7075746552656769737472793a20696e73756666696369656e74207374604482015267185ad9481cd95b9d60c21b6064820152608490fd5b60405162461bcd60e51b8152602060048201526024808201527f436f6d7075746552656769737472793a207374616b652062656c6f77206d696e604482015263696d756d60e01b6064820152608490fd5b3461016e575f36600319011261016e576005546040516001600160a01b039091168152602090f35b3461016e57604036600319011261016e57611545611a8b565b6001600160a01b039081165f8181526020819052604090205490916024359161157091163314611d71565b815f525f60205261158c60ff600860405f200154161515611c48565b815f525f60205260405f206115aa600160ff60088401541614611ca0565b6115b5821515611dbd565b5f828152600260205260409020546001600160a01b031661164d57600181019282845494855f52600260205260405f206001600160601b0360a01b815416905555825f52600260205260405f20906001600160601b0360a01b825416179055600a4291015560405191825260208201527fb5caf4ae9e868ffdbb6afe35aba7a388377e6f5c4d70810cfeddfdda0a459e1a60403392a2005b60405162461bcd60e51b815260206004820152602760248201527f436f6d7075746552656769737472793a207065657220494420616c726561647960448201526620696e2075736560c81b6064820152608490fd5b3461016e57604036600319011261016e576116bb611a8b565b6024356001600160401b03811161016e576116da903690600401611bda565b9161170f337f00000000000000000000000000000000000000000000000000000000000000006001600160a01b031614611d05565b6001600160a01b03165f818152602081905260409020600801546117379060ff161515611c48565b5f525f60205260405f20906008820191600360ff845416146117ad577f81b76ad6152d3858e819b43d33d55d0ec591ad555adb4589f50d021b3aac315d92600360ff1982541617905542600a82015560018060a01b03905416926117a8604051928392602084526020840191611d51565b0390a2005b606460405162461bcd60e51b815260206004820152602060248201527f436f6d7075746552656769737472793a20616c726561647920736c61736865646044820152fd5b3461016e57602036600319011261016e57611836337f00000000000000000000000000000000000000000000000000000000000000006001600160a01b031614611d05565b600480359055005b3461016e57602036600319011261016e576001600160a01b0361185f611a8b565b165f526001602052602060018060a01b0360405f205416604051908152f35b602036600319011261016e576001600160a01b0361189a611a8b565b16805f525f6020526118b760ff600860405f200154161515611c48565b805f525f60205260405f20906118d6600160ff60088501541614611ca0565b341561193b57600782016118eb348254611cf8565b90555f52600360205260405f20611903348254611cf8565b905560018060a01b039054167f0a7bb2e28cc4698aac06db79cf9163bfcc20719286cf59fa7d492ceda1b8edc26020604051348152a2005b60405162461bcd60e51b815260206004820152601e60248201527f436f6d7075746552656769737472793a206e6f2076616c75652073656e7400006044820152606490fd5b3461016e57602036600319011261016e576001600160a01b036119a1611a8b565b165f525f60205260405f2060018060a01b038154166001820154916119c860028201611b16565b61ffff600383015416916001600160401b03600582015416600682015460078301549060ff60088501541692611a22600a6009870154960154966040519a8b9a8b5260208b015261014060408b01526101408a0190611bb6565b966060890152608088015260a087015260c086015260e08501526101008401526101208301520390f35b3461016e57602036600319011261016e576020906001600160a01b03611a70611a8b565b165f9081526001835260409020546001600160a01b03168152f35b600435906001600160a01b038216820361016e57565b90600182811c92168015611acf575b6020831014611abb57565b634e487b7160e01b5f52602260045260245ffd5b91607f1691611ab0565b61016081019081106001600160401b03821117610bca57604052565b90601f801991011681019081106001600160401b03821117610bca57604052565b9060405191825f825492611b2984611aa1565b8084529360018116908115611b945750600114611b50575b50611b4e92500383611af5565b565b90505f9291925260205f20905f915b818310611b78575050906020611b4e928201015f611b41565b6020919350806001915483858901015201910190918492611b5f565b905060209250611b4e94915060ff191682840152151560051b8201015f611b41565b805180835260209291819084018484015e5f828201840152601f01601f1916010190565b9181601f8401121561016e578235916001600160401b03831161016e576020838186019501011161016e57565b6044359061ffff8216820361016e57565b9181601f8401121561016e578235916001600160401b03831161016e576020808501948460051b01011161016e57565b15611c4f57565b60405162461bcd60e51b815260206004820152602360248201527f436f6d7075746552656769737472793a2070726f7669646572206e6f7420666f6044820152621d5b9960ea1b6064820152608490fd5b15611ca757565b60405162461bcd60e51b8152602060048201526024808201527f436f6d7075746552656769737472793a2070726f7669646572206e6f742061636044820152637469766560e01b6064820152608490fd5b91908201809211610a1557565b15611d0c57565b60405162461bcd60e51b815260206004820152601a60248201527f436f6d7075746552656769737472793a206e6f74206f776e65720000000000006044820152606490fd5b908060209392818452848401375f828201840152601f01601f1916010190565b15611d7857565b60405162461bcd60e51b815260206004820152601f60248201527f436f6d7075746552656769737472793a206e6f7420617574686f72697a6564006044820152606490fd5b15611dc457565b606460405162461bcd60e51b815260206004820152602060248201527f436f6d7075746552656769737472793a20696e76616c696420706565722049446044820152fd5b9291926001600160401b038211610bca5760405191611e31601f8201601f191660200184611af5565b82948184528183011161016e578281602093845f960137010152565b9190811015611e6f5760051b81013590607e198136030182121561016e570190565b634e487b7160e01b5f52603260045260245ffd5b903590601e198136030182121561016e57018035906001600160401b03821161016e5760200191813603831361016e57565b15611ebc57565b60405162461bcd60e51b815260206004820152602a60248201527f436f6d7075746552656769737472793a206d6178436f6e74657874546f6b656e6044820152690e640e8dede40d0d2ced60b31b6064820152608490fd5b5f5b828110611f2257505050565b5f82820155600101611f16565b80549068010000000000000000821015610bca5760018201808255821015611e6f575f5260205f209060021b0190611f678180611e83565b906001600160401b038211610bca57611f808454611aa1565b601f811161204e575b505f90601f8311600114611fe7578260609360039593611fbe935f92611fdc575b50508160011b915f199060031b1c19161790565b84555b60208101356001850155604081013560028501550135910155565b013590505f80611faa565b601f19831691855f5260205f20925f5b8181106120365750926001928592606096600398961061201f575b505050811b018455611fc1565b01355f1983881b60f8161c191690555f8080612012565b91936020600181928787013581550195019201611ff7565b82811115611f895761208290855f5260205f2090601f850160051c9060208610610bc257601f82910160051c039101611f14565b5f611f89565b91908203918211610a1557565b511561209d57565b60405162461bcd60e51b815260206004820152601b60248201527f56616c69646174696f6e4c69623a20656d70747920737472696e6700000000006044820152606490fd5b6001116120eb57565b60405162461bcd60e51b815260206004820152602260248201527f56616c69646174696f6e4c69623a2070726963652062656c6f77206d696e696d604482015261756d60f01b6064820152608490fdfea26469706673582212200e3d1a136980c7552f40ef2ac04041bbd3ad9ba9118509177653dd0eb9953e5364736f6c63430008230033","linkReferences":{}},"methodIdentifiers":{"MAX_CONTEXT_TOKENS()":"81a04e29","MIN_TPS()":"82fb9c84","authorityToProvider(address)":"15662cce","depositStake(address)":"0a1a092a","emergencyWithdraw()":"db2e21bc","feeRecipient()":"46904840","getProvider(address)":"55f21eb7","getProviderByAuthority(address)":"01d8eaf2","getProviderByPeerId(bytes32)":"980d38de","getProviderStatus(address)":"d646a1da","getStake(address)":"7a766460","isActiveProvider(address)":"9b5e1a3b","minimumStake()":"ec5ffac2","minimumStakeAmount()":"6b036f45","owner()":"8da5cb5b","pauseProvider(address)":"e7a97562","peerIdToProvider(bytes32)":"a24ac260","providers(address)":"0787bc27","registerProvider(bytes32,string,uint16,(string,uint256,uint256,uint256)[],uint256)":"54629b8e","resumeProvider(address)":"96866dfd","rotatePeerId(address,bytes32)":"361a7220","setFeeRecipient(address)":"e74b981b","setMinimumStake(uint256)":"233e9903","slashProvider(address,bytes)":"31f0fda2","stakes(address)":"16934fc4","updateProvider(address,string,uint16,(string,uint256,uint256,uint256)[])":"83eeed8b","withdrawStake(address,uint256)":"c6066272"},"id":0}