{"abi":[{"type":"constructor","inputs":[{"name":"_owner","type":"address","internalType":"address"},{"name":"_computeRegistry","type":"address","internalType":"address"},{"name":"_escrowVault","type":"address","internalType":"address"}],"stateMutability":"nonpayable"},{"type":"function","name":"EARNED_WEIGHT","inputs":[],"outputs":[{"name":"","type":"uint256","internalType":"uint256"}],"stateMutability":"view"},{"type":"function","name":"JOBS_COMPLETED_WEIGHT","inputs":[],"outputs":[{"name":"","type":"uint256","internalType":"uint256"}],"stateMutability":"view"},{"type":"function","name":"JOBS_DISPUTED_PENALTY","inputs":[],"outputs":[{"name":"","type":"uint256","internalType":"uint256"}],"stateMutability":"view"},{"type":"function","name":"JOBS_SLASHED_PENALTY","inputs":[],"outputs":[{"name":"","type":"uint256","internalType":"uint256"}],"stateMutability":"view"},{"type":"function","name":"RATING_WEIGHT","inputs":[],"outputs":[{"name":"","type":"uint256","internalType":"uint256"}],"stateMutability":"view"},{"type":"function","name":"addAuthorizedCaller","inputs":[{"name":"caller","type":"address","internalType":"address"}],"outputs":[],"stateMutability":"nonpayable"},{"type":"function","name":"anchorRatings","inputs":[{"name":"providerAuthority","type":"address","internalType":"address"},{"name":"ratingsCID","type":"bytes32","internalType":"bytes32"}],"outputs":[],"stateMutability":"nonpayable"},{"type":"function","name":"authorizedCallers","inputs":[{"name":"","type":"address","internalType":"address"}],"outputs":[{"name":"","type":"bool","internalType":"bool"}],"stateMutability":"view"},{"type":"function","name":"calculateReputationScore","inputs":[{"name":"providerAuthority","type":"address","internalType":"address"}],"outputs":[{"name":"score","type":"uint256","internalType":"uint256"}],"stateMutability":"view"},{"type":"function","name":"computeRegistry","inputs":[],"outputs":[{"name":"","type":"address","internalType":"address"}],"stateMutability":"view"},{"type":"function","name":"consumerReputations","inputs":[{"name":"","type":"address","internalType":"address"}],"outputs":[{"name":"consumer","type":"address","internalType":"address"},{"name":"jobsCreated","type":"uint64","internalType":"uint64"},{"name":"totalSpent","type":"uint256","internalType":"uint256"},{"name":"disputesRaised","type":"uint64","internalType":"uint64"},{"name":"disputesWon","type":"uint64","internalType":"uint64"}],"stateMutability":"view"},{"type":"function","name":"escrowVault","inputs":[],"outputs":[{"name":"","type":"address","internalType":"address"}],"stateMutability":"view"},{"type":"function","name":"getConsumerReputation","inputs":[{"name":"consumer","type":"address","internalType":"address"}],"outputs":[{"name":"","type":"tuple","internalType":"struct IReputation.ConsumerReputation","components":[{"name":"consumer","type":"address","internalType":"address"},{"name":"jobsCreated","type":"uint64","internalType":"uint64"},{"name":"totalSpent","type":"uint256","internalType":"uint256"},{"name":"disputesRaised","type":"uint64","internalType":"uint64"},{"name":"disputesWon","type":"uint64","internalType":"uint64"}]}],"stateMutability":"view"},{"type":"function","name":"getProviderReputation","inputs":[{"name":"providerAuthority","type":"address","internalType":"address"}],"outputs":[{"name":"","type":"tuple","internalType":"struct IReputation.ReputationEntry","components":[{"name":"providerAuthority","type":"address","internalType":"address"},{"name":"jobsCompleted","type":"uint64","internalType":"uint64"},{"name":"jobsDisputed","type":"uint64","internalType":"uint64"},{"name":"jobsSlashed","type":"uint64","internalType":"uint64"},{"name":"totalEarned","type":"uint256","internalType":"uint256"},{"name":"totalStaked","type":"uint256","internalType":"uint256"},{"name":"ratingsCID","type":"bytes32","internalType":"bytes32"},{"name":"lastUpdate","type":"uint256","internalType":"uint256"}]}],"stateMutability":"view"},{"type":"function","name":"getProviderReputationRank","inputs":[{"name":"providerAuthority","type":"address","internalType":"address"}],"outputs":[{"name":"rank","type":"uint256","internalType":"uint256"}],"stateMutability":"view"},{"type":"function","name":"owner","inputs":[],"outputs":[{"name":"","type":"address","internalType":"address"}],"stateMutability":"view"},{"type":"function","name":"providerReputations","inputs":[{"name":"","type":"address","internalType":"address"}],"outputs":[{"name":"providerAuthority","type":"address","internalType":"address"},{"name":"jobsCompleted","type":"uint64","internalType":"uint64"},{"name":"jobsDisputed","type":"uint64","internalType":"uint64"},{"name":"jobsSlashed","type":"uint64","internalType":"uint64"},{"name":"totalEarned","type":"uint256","internalType":"uint256"},{"name":"totalStaked","type":"uint256","internalType":"uint256"},{"name":"ratingsCID","type":"bytes32","internalType":"bytes32"},{"name":"lastUpdate","type":"uint256","internalType":"uint256"}],"stateMutability":"view"},{"type":"function","name":"recordConsumerDisputeRaised","inputs":[{"name":"consumer","type":"address","internalType":"address"}],"outputs":[],"stateMutability":"nonpayable"},{"type":"function","name":"recordConsumerDisputeWon","inputs":[{"name":"consumer","type":"address","internalType":"address"}],"outputs":[],"stateMutability":"nonpayable"},{"type":"function","name":"recordConsumerJobCreated","inputs":[{"name":"consumer","type":"address","internalType":"address"},{"name":"amount","type":"uint256","internalType":"uint256"}],"outputs":[],"stateMutability":"nonpayable"},{"type":"function","name":"recordJobCompleted","inputs":[{"name":"providerAuthority","type":"address","internalType":"address"},{"name":"amount","type":"uint256","internalType":"uint256"}],"outputs":[],"stateMutability":"nonpayable"},{"type":"function","name":"recordJobDisputed","inputs":[{"name":"providerAuthority","type":"address","internalType":"address"}],"outputs":[],"stateMutability":"nonpayable"},{"type":"function","name":"recordJobSlashed","inputs":[{"name":"providerAuthority","type":"address","internalType":"address"}],"outputs":[],"stateMutability":"nonpayable"},{"type":"function","name":"removeAuthorizedCaller","inputs":[{"name":"caller","type":"address","internalType":"address"}],"outputs":[],"stateMutability":"nonpayable"},{"type":"function","name":"resetProviderReputation","inputs":[{"name":"providerAuthority","type":"address","internalType":"address"}],"outputs":[],"stateMutability":"nonpayable"},{"type":"function","name":"scoreDistribution","inputs":[{"name":"","type":"uint256","internalType":"uint256"}],"outputs":[{"name":"","type":"uint256","internalType":"uint256"}],"stateMutability":"view"},{"type":"function","name":"setEscrowVault","inputs":[{"name":"newEscrowVault","type":"address","internalType":"address"}],"outputs":[],"stateMutability":"nonpayable"},{"type":"function","name":"setWeights","inputs":[{"name":"_jobsCompletedWeight","type":"uint256","internalType":"uint256"},{"name":"_jobsDisputedPenalty","type":"uint256","internalType":"uint256"},{"name":"_jobsSlashedPenalty","type":"uint256","internalType":"uint256"},{"name":"_earnedWeight","type":"uint256","internalType":"uint256"},{"name":"_ratingWeight","type":"uint256","internalType":"uint256"}],"outputs":[],"stateMutability":"nonpayable"},{"type":"event","name":"ConsumerDisputeRaised","inputs":[{"name":"consumer","type":"address","indexed":true,"internalType":"address"}],"anonymous":false},{"type":"event","name":"ConsumerDisputeWon","inputs":[{"name":"consumer","type":"address","indexed":true,"internalType":"address"}],"anonymous":false},{"type":"event","name":"ConsumerJobCreated","inputs":[{"name":"consumer","type":"address","indexed":true,"internalType":"address"},{"name":"amount","type":"uint256","indexed":false,"internalType":"uint256"}],"anonymous":false},{"type":"event","name":"JobCompleted","inputs":[{"name":"provider","type":"address","indexed":true,"internalType":"address"},{"name":"amount","type":"uint256","indexed":false,"internalType":"uint256"}],"anonymous":false},{"type":"event","name":"JobDisputed","inputs":[{"name":"provider","type":"address","indexed":true,"internalType":"address"}],"anonymous":false},{"type":"event","name":"JobSlashed","inputs":[{"name":"provider","type":"address","indexed":true,"internalType":"address"}],"anonymous":false},{"type":"event","name":"RatingsAnchored","inputs":[{"name":"provider","type":"address","indexed":true,"internalType":"address"},{"name":"ratingsCID","type":"bytes32","indexed":false,"internalType":"bytes32"}],"anonymous":false},{"type":"error","name":"ConsumerNotFound","inputs":[]},{"type":"error","name":"InvalidRatingsCID","inputs":[]},{"type":"error","name":"ProviderNotFound","inputs":[]},{"type":"error","name":"UnauthorizedCaller","inputs":[]}],"bytecode":{"object":"0x60c03461012e57601f61178538819003918201601f19168301916001600160401b038311848410176101325780849260609460405283398101031261012e5761004781610146565b90610060604061005960208401610146565b9201610146565b60809290925260a052600380546001600160a01b0319166001600160a01b0390921691909117905560405161162a908161015b82396080518181816102970152818161040f0152818161047801528181610502015281816105920152818161080c0152818161084f01528181610aa201528181610aef01528181610da001528181610ded01528181610fa2015261114d015260a051818181610192015281816102d3015281816103230152818161073a015281816109de01528181610cd101528181610e7901526110290152f35b5f80fd5b634e487b7160e01b5f52604160045260245ffd5b51906001600160a01b038216820361012e5756fe60806040526004361015610011575f80fd5b5f3560e01c8062e2a207146110065780630a8fa82514610fd05780630e15243f14610e595780630f9d8f5314610e3e57806313a155ea14610dce5780631a43d96a14610cb2578063299705f614610c3e5780634200f27614610c235780634b9220b114610bf9578063536fff6c14610bbc5780635a63169814610ad05780636311fc34146109bf578063729d98e9146108a65780638a2ae60b1461087e5780638da5cb5b1461083a5780639318a6901461071c578063950d347c14610656578063a160ffa2146105c0578063ad1dc0071461057b578063b3046b1514610550578063b7aa0231146104e3578063b903dd35146104c8578063c671bdec14610459578063c72525ca1461043d578063d991b84414610302578063dfdfe9c8146102be578063e325efd21461016b5763e5e18bbe1461014c575f80fd5b34610167575f36600319011261016757602060405160018152f35b5f80fd5b346101675760403660031901126101675761018461117b565b6024359061026090600190337f00000000000000000000000000000000000000000000000000000000000000006001600160a01b031614801561028e575b801561027c575b8015610264575b6101d990611191565b6101e2816113a9565b6101eb846113fe565b818060a01b0381165f528160205260405f2090828060a01b03166001600160601b0360a01b82541617815561025761022f6001600160401b03835460a01c166111dd565b825467ffffffffffffffff60a01b191660a09190911b67ffffffffffffffff60a01b16178255565b019182546111fb565b9055005b50335f9081526004602052604090205460ff166101d0565b50818060a01b036003541633146101c9565b50818060a01b037f00000000000000000000000000000000000000000000000000000000000000001633146101c2565b34610167575f366003190112610167576040517f00000000000000000000000000000000000000000000000000000000000000006001600160a01b03168152602090f35b34610167576020366003190112610167576103dd600261032061117b565b337f00000000000000000000000000000000000000000000000000000000000000006001600160a01b031614801561040b575b80156103f7575b80156103df575b61036a90611191565b610373816113a9565b6001600160a01b03165f818152600160205260409081902080546001600160a01b03191690921782559101805490916103b691901c6001600160401b03166111dd565b67ffffffffffffffff60401b82549160401b169067ffffffffffffffff60401b1916179055565b005b50335f9081526004602052604090205460ff16610361565b506003546001600160a01b0316331461035a565b50337f00000000000000000000000000000000000000000000000000000000000000006001600160a01b031614610353565b34610167575f3660031901126101675760206040516101f48152f35b346101675760203660031901126101675761047261117b565b6104a6337f00000000000000000000000000000000000000000000000000000000000000006001600160a01b031614611208565b600380546001600160a01b0319166001600160a01b0392909216919091179055005b34610167575f366003190112610167576020604051600a8152f35b34610167576020366003190112610167576104fc61117b565b610530337f00000000000000000000000000000000000000000000000000000000000000006001600160a01b031614611208565b6001600160a01b03165f908152600460205260409020805460ff19169055005b3461016757602036600319011261016757602061057361056e61117b565b611303565b604051908152f35b346101675760a0366003190112610167576103dd337f00000000000000000000000000000000000000000000000000000000000000006001600160a01b031614611208565b34610167576020366003190112610167576001600160a01b036105e161117b565b165f525f60205261010060405f2080549060018101549060028101546003820154906001600160401b036005600485015494015494816040519760018060a01b038116895260a01c166020880152818116604088015260401c166060860152608085015260a084015260c083015260e0820152f35b346101675760203660031901126101675761066f61117b565b5f608061067a6112e4565b828152826020820152826040820152826060820152015260018060a01b03165f52600160205260a060405f206001600160401b036106b66112e4565b81835491600180871b03831694858252826020830194881c1684528260026001830154926040850193845201549481608060608601958289168752019660401c168652604051978852511660208701525160408601525116606084015251166080820152f35b3461016757602036600319011261016757600261073761117b565b337f00000000000000000000000000000000000000000000000000000000000000006001600160a01b0316148015610808575b80156107f4575b80156107dc575b61078190611191565b61078a816113a9565b6001600160a01b03165f81815260016020526040902080546001600160a01b03191690911781550180546001600160401b03906107c89082166111dd565b825467ffffffffffffffff19169116179055005b50335f9081526004602052604090205460ff16610778565b506003546001600160a01b03163314610771565b50337f00000000000000000000000000000000000000000000000000000000000000006001600160a01b03161461076a565b34610167575f366003190112610167576040517f00000000000000000000000000000000000000000000000000000000000000006001600160a01b03168152602090f35b34610167575f366003190112610167576003546040516001600160a01b039091168152602090f35b34610167576020366003190112610167576108bf61117b565b5f60e06108ca6112b0565b8281528260208201528260408201528260608201528260808201528260a08201528260c0820152015260018060a01b03165f525f60205261010060405f206109106112b0565b81549160018060a01b038316928383526001600160401b03602084019160a01c16815260018201546001600160401b036040850191818116835281606087019160401c16815281600286015493608088019485528160038801549660a08a0197885260e0600560048b01549a60c08d019b8c5201549a01998a526040519a8b52511660208a015251166040880152511660608601525160808501525160a08401525160c08301525160e0820152f35b34610167576020366003190112610167576103dd6109db61117b565b337f00000000000000000000000000000000000000000000000000000000000000006001600160a01b0316148015610a9e575b8015610a8a575b610a1e90611191565b610a27816113a9565b60018060a01b03811690815f525f602052610a4460405f2061145b565b91805f525f60205260405f20906001600160601b0360a01b825416178155610a7f600182016103b66001600160401b03825460401c166111dd565b600542910155611577565b506003546001600160a01b03163314610a15565b50337f00000000000000000000000000000000000000000000000000000000000000006001600160a01b031614610a0e565b3461016757602036600319011261016757610ae961117b565b610b1d337f00000000000000000000000000000000000000000000000000000000000000006001600160a01b031614611208565b6001600160a01b03165f818152602081905260409020610b3c9061145b565b80610b71575b505f525f6020525f60056040822082815582600182015582600282015582600382015582600482015501555f80f35b805f526002602052610b8860405f2054151561124c565b5f52600260205260405f208054905f198201918211610ba8575581610b42565b634e487b7160e01b5f52601160045260245ffd5b34610167576020366003190112610167576001600160a01b03610bdd61117b565b165f526004602052602060ff60405f2054166040519015158152f35b34610167576020366003190112610167576004355f526002602052602060405f2054604051908152f35b34610167575f36600319011261016757602060405160328152f35b34610167576020366003190112610167576001600160a01b03610c5f61117b565b165f52600160205260a060405f206001600160401b0381549160026001820154910154908260405194600180881b0381168652861c1660208501526040840152818116606084015260401c166080820152f35b34610167576020366003190112610167576103dd610cce61117b565b337f00000000000000000000000000000000000000000000000000000000000000006001600160a01b0316148015610d9c575b8015610d88575b610d1190611191565b610d1a816113a9565b60018060a01b03811690815f525f602052610d3760405f2061145b565b91805f525f60205260405f20906001600160601b0360a01b825416178155600181016001600160401b03610d6d818354166111dd565b166001600160401b0319825416179055600542910155611577565b506003546001600160a01b03163314610d08565b50337f00000000000000000000000000000000000000000000000000000000000000006001600160a01b031614610d01565b3461016757602036600319011261016757610de761117b565b610e1b337f00000000000000000000000000000000000000000000000000000000000000006001600160a01b031614611208565b6001600160a01b03165f908152600460205260409020805460ff19166001179055005b34610167575f36600319011261016757602060405160648152f35b3461016757604036600319011261016757610e7261117b565b60243590337f00000000000000000000000000000000000000000000000000000000000000006001600160a01b0316148015610f9e575b8015610f8a575b8015610f72575b610ec090611191565b610ec9816113a9565b8115610f2d5760207f037850dbaae078517b4f6b7163b820f69cf61a7d4153c4c1c1500b88089b27229160018060a01b031692835f525f825260405f20846001600160601b0360a01b825416178155816004820155600542910155604051908152a2005b60405162461bcd60e51b815260206004820152601760248201527f52657075746174696f6e3a20696e76616c6964204349440000000000000000006044820152606490fd5b50335f9081526004602052604090205460ff16610eb7565b506003546001600160a01b03163314610eb0565b50337f00000000000000000000000000000000000000000000000000000000000000006001600160a01b031614610ea9565b34610167576020366003190112610167576001600160a01b03610ff161117b565b165f525f602052602061057360405f2061145b565b34610167576040366003190112610167576103dd61102261117b565b60243590337f00000000000000000000000000000000000000000000000000000000000000006001600160a01b0316148015611149575b8015611135575b801561111d575b61107090611191565b611079816113a9565b611082826113fe565b6001600160a01b0381165f8181526020819052604090206110a29061145b565b92815f525f60205260405f20916001600160601b0360a01b8354161782556111016110d96001600160401b03845460a01c166111dd565b835467ffffffffffffffff60a01b191660a09190911b67ffffffffffffffff60a01b16178355565b611110600283019182546111fb565b9055600542910155611577565b50335f9081526004602052604090205460ff16611067565b506003546001600160a01b03163314611060565b50337f00000000000000000000000000000000000000000000000000000000000000006001600160a01b031614611059565b600435906001600160a01b038216820361016757565b1561119857565b60405162461bcd60e51b815260206004820152601a60248201527f52657075746174696f6e3a206e6f7420617574686f72697a65640000000000006044820152606490fd5b6001600160401b036001911601906001600160401b038211610ba857565b91908201809211610ba857565b1561120f57565b60405162461bcd60e51b81526020600482015260156024820152742932b83aba30ba34b7b71d103737ba1037bbb732b960591b6044820152606490fd5b1561125357565b60405162461bcd60e51b815260206004820152602260248201527f52657075746174696f6e3a20646973747269627574696f6e20756e646572666c6044820152616f7760f01b6064820152608490fd5b91908203918211610ba857565b6040519061010082018281106001600160401b038211176112d057604052565b634e487b7160e01b5f52604160045260245ffd5b6040519060a082018281106001600160401b038211176112d057604052565b6001600160a01b03165f9081526020819052604081206113229061145b565b9081156113a35760018201808311610ba857916127108101809111925b5f19811061135a575b5050905060018101809111610ba85790565b805f5260026020528360405f2054611385575b610ba8578181116113805760010161133f565b611348565b9261139d90825f52600260205260405f2054906111fb565b9261136d565b50505f90565b6001600160a01b0316156113b957565b60405162461bcd60e51b815260206004820152601b60248201527f56616c69646174696f6e4c69623a207a65726f206164647265737300000000006044820152606490fd5b1561140557565b60405162461bcd60e51b815260206004820152602860248201527f56616c69646174696f6e4c69623a207175616e74697479206d75737420626520604482015267706f73697469766560c01b6064820152608490fd5b80546001600160a01b038116156113a3576001600160401b039060a01c16600a810290808204600a1490151715610ba85760018201546001600160401b0381168281158015611530575b50505060401c6001600160401b0316801580156114e9575b5050906002670de0b6b3a76400009101540480800460011481151715610ba8576114e6916111fb565b90565b6101f482029182046101f4141715610ba85780821061151d57611517600291670de0b6b3a7640000936112a3565b916114bd565b5050670de0b6b3a764000060025f611517565b9091929350603283029283046032141715610ba857818110611567576001600160401b039161155e916112a3565b91905f806114a5565b50506001600160401b035f61155e565b90806115bd575b5060018060a01b03165f525f60205261159960405f2061145b565b806115a15750565b5f52600260205260405f2080549060018201809211610ba85755565b805f5260026020526115d460405f2054151561124c565b5f52600260205260405f208054905f198201918211610ba857555f61157e56fea2646970667358221220eb264087189546bd2e5c7d5683963c6b5fed38af1629ca4cd3826873bf190b8164736f6c63430008230033","linkReferences":{}},"methodIdentifiers":{"EARNED_WEIGHT()":"e5e18bbe","JOBS_COMPLETED_WEIGHT()":"b903dd35","JOBS_DISPUTED_PENALTY()":"4200f276","JOBS_SLASHED_PENALTY()":"c72525ca","RATING_WEIGHT()":"0f9d8f53","addAuthorizedCaller(address)":"13a155ea","anchorRatings(address,bytes32)":"0e15243f","authorizedCallers(address)":"536fff6c","calculateReputationScore(address)":"0a8fa825","computeRegistry()":"dfdfe9c8","consumerReputations(address)":"299705f6","escrowVault()":"8a2ae60b","getConsumerReputation(address)":"950d347c","getProviderReputation(address)":"729d98e9","getProviderReputationRank(address)":"b3046b15","owner()":"8da5cb5b","providerReputations(address)":"a160ffa2","recordConsumerDisputeRaised(address)":"9318a690","recordConsumerDisputeWon(address)":"d991b844","recordConsumerJobCreated(address,uint256)":"e325efd2","recordJobCompleted(address,uint256)":"00e2a207","recordJobDisputed(address)":"1a43d96a","recordJobSlashed(address)":"6311fc34","removeAuthorizedCaller(address)":"b7aa0231","resetProviderReputation(address)":"5a631698","scoreDistribution(uint256)":"4b9220b1","setEscrowVault(address)":"c671bdec","setWeights(uint256,uint256,uint256,uint256,uint256)":"ad1dc007"},"id":3}