{"abi":[{"type":"constructor","inputs":[{"name":"_computeRegistry","type":"address","internalType":"address"},{"name":"_reputation","type":"address","internalType":"address"},{"name":"_owner","type":"address","internalType":"address"},{"name":"_protocolFeeRecipient","type":"address","internalType":"address"}],"stateMutability":"nonpayable"},{"type":"receive","stateMutability":"payable"},{"type":"function","name":"CONFIRM_WINDOW","inputs":[],"outputs":[{"name":"","type":"uint256","internalType":"uint256"}],"stateMutability":"view"},{"type":"function","name":"CONFIRM_WINDOW_","inputs":[],"outputs":[{"name":"","type":"uint256","internalType":"uint256"}],"stateMutability":"view"},{"type":"function","name":"JOB_TIMEOUT","inputs":[],"outputs":[{"name":"","type":"uint256","internalType":"uint256"}],"stateMutability":"view"},{"type":"function","name":"JOB_TIMEOUT_","inputs":[],"outputs":[{"name":"","type":"uint256","internalType":"uint256"}],"stateMutability":"view"},{"type":"function","name":"MIN_AMOUNT","inputs":[],"outputs":[{"name":"","type":"uint256","internalType":"uint256"}],"stateMutability":"view"},{"type":"function","name":"MIN_AMOUNT_","inputs":[],"outputs":[{"name":"","type":"uint256","internalType":"uint256"}],"stateMutability":"view"},{"type":"function","name":"PROTOCOL_FEE_BPS","inputs":[],"outputs":[{"name":"","type":"uint256","internalType":"uint256"}],"stateMutability":"view"},{"type":"function","name":"PROTOCOL_FEE_BPS_","inputs":[],"outputs":[{"name":"","type":"uint256","internalType":"uint256"}],"stateMutability":"view"},{"type":"function","name":"anyoneConfirm","inputs":[{"name":"jobAddress","type":"address","internalType":"address"}],"outputs":[],"stateMutability":"nonpayable"},{"type":"function","name":"computeRegistry","inputs":[],"outputs":[{"name":"","type":"address","internalType":"address"}],"stateMutability":"view"},{"type":"function","name":"consumerConfirm","inputs":[{"name":"jobAddress","type":"address","internalType":"address"}],"outputs":[],"stateMutability":"nonpayable"},{"type":"function","name":"consumerJobs","inputs":[{"name":"","type":"address","internalType":"address"},{"name":"","type":"uint256","internalType":"uint256"}],"outputs":[{"name":"","type":"bytes32","internalType":"bytes32"}],"stateMutability":"view"},{"type":"function","name":"createJob","inputs":[{"name":"providerAuthority","type":"address","internalType":"address"},{"name":"requestHash","type":"bytes32","internalType":"bytes32"},{"name":"nonce","type":"uint64","internalType":"uint64"},{"name":"taskType","type":"uint64","internalType":"uint64"},{"name":"validUntil","type":"uint64","internalType":"uint64"},{"name":"quoteSignature","type":"bytes","internalType":"bytes"},{"name":"amount","type":"uint256","internalType":"uint256"},{"name":"paymentMint","type":"address","internalType":"address"},{"name":"","type":"bytes16","internalType":"bytes16"}],"outputs":[{"name":"jobAddress","type":"address","internalType":"address"},{"name":"jobId","type":"bytes32","internalType":"bytes32"}],"stateMutability":"payable"},{"type":"function","name":"emergencyWithdraw","inputs":[],"outputs":[],"stateMutability":"nonpayable"},{"type":"function","name":"getJob","inputs":[{"name":"jobAddress","type":"address","internalType":"address"}],"outputs":[{"name":"","type":"tuple","internalType":"struct IEscrowVault.Job","components":[{"name":"jobId","type":"bytes32","internalType":"bytes32"},{"name":"consumer","type":"address","internalType":"address"},{"name":"providerAuthority","type":"address","internalType":"address"},{"name":"providerPeerId","type":"bytes32","internalType":"bytes32"},{"name":"requestHash","type":"bytes32","internalType":"bytes32"},{"name":"nonce","type":"uint64","internalType":"uint64"},{"name":"taskType","type":"uint64","internalType":"uint64"},{"name":"validUntil","type":"uint64","internalType":"uint64"},{"name":"quoteSignature","type":"bytes","internalType":"bytes"},{"name":"amount","type":"uint256","internalType":"uint256"},{"name":"paymentMint","type":"address","internalType":"address"},{"name":"providerFeeBps","type":"uint256","internalType":"uint256"},{"name":"state","type":"uint8","internalType":"uint8"},{"name":"createdAt","type":"uint256","internalType":"uint256"},{"name":"providerAckedAt","type":"uint256","internalType":"uint256"},{"name":"providerCompletedAt","type":"uint256","internalType":"uint256"},{"name":"confirmWindowStart","type":"uint256","internalType":"uint256"},{"name":"settledAt","type":"uint256","internalType":"uint256"},{"name":"responseHash","type":"bytes32","internalType":"bytes32"},{"name":"attestationRoot","type":"bytes32","internalType":"bytes32"},{"name":"disputeEvidenceHash","type":"bytes32","internalType":"bytes32"},{"name":"arbitrator","type":"address","internalType":"address"}]}],"stateMutability":"view"},{"type":"function","name":"getJobState","inputs":[{"name":"jobAddress","type":"address","internalType":"address"}],"outputs":[{"name":"","type":"uint8","internalType":"enum IEscrowVault.JobState"}],"stateMutability":"view"},{"type":"function","name":"getJobsByConsumer","inputs":[{"name":"consumer","type":"address","internalType":"address"}],"outputs":[{"name":"jobIds","type":"bytes32[]","internalType":"bytes32[]"}],"stateMutability":"view"},{"type":"function","name":"getJobsByProvider","inputs":[{"name":"provider","type":"address","internalType":"address"}],"outputs":[{"name":"jobIds","type":"bytes32[]","internalType":"bytes32[]"}],"stateMutability":"view"},{"type":"function","name":"getPendingJobs","inputs":[],"outputs":[{"name":"jobIds","type":"bytes32[]","internalType":"bytes32[]"}],"stateMutability":"view"},{"type":"function","name":"jobIdToAddress","inputs":[{"name":"","type":"bytes32","internalType":"bytes32"}],"outputs":[{"name":"","type":"address","internalType":"address"}],"stateMutability":"view"},{"type":"function","name":"jobs","inputs":[{"name":"","type":"address","internalType":"address"}],"outputs":[{"name":"jobId","type":"bytes32","internalType":"bytes32"},{"name":"consumer","type":"address","internalType":"address"},{"name":"providerAuthority","type":"address","internalType":"address"},{"name":"providerPeerId","type":"bytes32","internalType":"bytes32"},{"name":"requestHash","type":"bytes32","internalType":"bytes32"},{"name":"nonce","type":"uint64","internalType":"uint64"},{"name":"taskType","type":"uint64","internalType":"uint64"},{"name":"validUntil","type":"uint64","internalType":"uint64"},{"name":"quoteSignature","type":"bytes","internalType":"bytes"},{"name":"amount","type":"uint256","internalType":"uint256"},{"name":"paymentMint","type":"address","internalType":"address"},{"name":"providerFeeBps","type":"uint256","internalType":"uint256"},{"name":"state","type":"uint8","internalType":"uint8"},{"name":"createdAt","type":"uint256","internalType":"uint256"},{"name":"providerAckedAt","type":"uint256","internalType":"uint256"},{"name":"providerCompletedAt","type":"uint256","internalType":"uint256"},{"name":"confirmWindowStart","type":"uint256","internalType":"uint256"},{"name":"settledAt","type":"uint256","internalType":"uint256"},{"name":"responseHash","type":"bytes32","internalType":"bytes32"},{"name":"attestationRoot","type":"bytes32","internalType":"bytes32"},{"name":"disputeEvidenceHash","type":"bytes32","internalType":"bytes32"},{"name":"arbitrator","type":"address","internalType":"address"}],"stateMutability":"view"},{"type":"function","name":"owner","inputs":[],"outputs":[{"name":"","type":"address","internalType":"address"}],"stateMutability":"view"},{"type":"function","name":"pendingJobs","inputs":[{"name":"","type":"uint256","internalType":"uint256"}],"outputs":[{"name":"","type":"bytes32","internalType":"bytes32"}],"stateMutability":"view"},{"type":"function","name":"protocolFeeRecipient","inputs":[],"outputs":[{"name":"","type":"address","internalType":"address"}],"stateMutability":"view"},{"type":"function","name":"protocolFeesCollected","inputs":[],"outputs":[{"name":"","type":"uint256","internalType":"uint256"}],"stateMutability":"view"},{"type":"function","name":"protocolFeesCollected_","inputs":[],"outputs":[{"name":"","type":"uint256","internalType":"uint256"}],"stateMutability":"view"},{"type":"function","name":"providerAck","inputs":[{"name":"jobAddress","type":"address","internalType":"address"},{"name":"requestHash","type":"bytes32","internalType":"bytes32"}],"outputs":[],"stateMutability":"nonpayable"},{"type":"function","name":"providerComplete","inputs":[{"name":"jobAddress","type":"address","internalType":"address"},{"name":"responseHash","type":"bytes32","internalType":"bytes32"},{"name":"teeQuote","type":"bytes","internalType":"bytes"}],"outputs":[],"stateMutability":"nonpayable"},{"type":"function","name":"providerJobs","inputs":[{"name":"","type":"address","internalType":"address"},{"name":"","type":"uint256","internalType":"uint256"}],"outputs":[{"name":"","type":"bytes32","internalType":"bytes32"}],"stateMutability":"view"},{"type":"function","name":"raiseDispute","inputs":[{"name":"jobAddress","type":"address","internalType":"address"},{"name":"evidenceHash","type":"bytes32","internalType":"bytes32"}],"outputs":[],"stateMutability":"nonpayable"},{"type":"function","name":"refundJob","inputs":[{"name":"jobAddress","type":"address","internalType":"address"}],"outputs":[],"stateMutability":"nonpayable"},{"type":"function","name":"reputation","inputs":[],"outputs":[{"name":"","type":"address","internalType":"address"}],"stateMutability":"view"},{"type":"function","name":"resolveDispute","inputs":[{"name":"jobAddress","type":"address","internalType":"address"},{"name":"consumerWins","type":"bool","internalType":"bool"}],"outputs":[],"stateMutability":"nonpayable"},{"type":"function","name":"setProtocolFeeBps","inputs":[{"name":"newFeeBps","type":"uint256","internalType":"uint256"}],"outputs":[],"stateMutability":"nonpayable"},{"type":"function","name":"setProtocolFeeRecipient","inputs":[{"name":"newRecipient","type":"address","internalType":"address"}],"outputs":[],"stateMutability":"nonpayable"},{"type":"event","name":"JobAutoSettled","inputs":[{"name":"jobId","type":"bytes32","indexed":true,"internalType":"bytes32"}],"anonymous":false},{"type":"event","name":"JobConsumerConfirmed","inputs":[{"name":"jobId","type":"bytes32","indexed":true,"internalType":"bytes32"}],"anonymous":false},{"type":"event","name":"JobCreated","inputs":[{"name":"jobId","type":"bytes32","indexed":true,"internalType":"bytes32"},{"name":"consumer","type":"address","indexed":true,"internalType":"address"},{"name":"provider","type":"address","indexed":true,"internalType":"address"},{"name":"amount","type":"uint256","indexed":false,"internalType":"uint256"}],"anonymous":false},{"type":"event","name":"JobDisputeResolved","inputs":[{"name":"jobId","type":"bytes32","indexed":true,"internalType":"bytes32"},{"name":"consumerWins","type":"bool","indexed":false,"internalType":"bool"}],"anonymous":false},{"type":"event","name":"JobDisputed","inputs":[{"name":"jobId","type":"bytes32","indexed":true,"internalType":"bytes32"},{"name":"disputer","type":"address","indexed":true,"internalType":"address"},{"name":"evidenceHash","type":"bytes32","indexed":false,"internalType":"bytes32"}],"anonymous":false},{"type":"event","name":"JobProviderAcked","inputs":[{"name":"jobId","type":"bytes32","indexed":true,"internalType":"bytes32"}],"anonymous":false},{"type":"event","name":"JobProviderCompleted","inputs":[{"name":"jobId","type":"bytes32","indexed":true,"internalType":"bytes32"},{"name":"responseHash","type":"bytes32","indexed":false,"internalType":"bytes32"}],"anonymous":false},{"type":"event","name":"JobRefunded","inputs":[{"name":"jobId","type":"bytes32","indexed":true,"internalType":"bytes32"},{"name":"consumer","type":"address","indexed":true,"internalType":"address"},{"name":"amount","type":"uint256","indexed":false,"internalType":"uint256"}],"anonymous":false},{"type":"event","name":"ProtocolFeeCollected","inputs":[{"name":"amount","type":"uint256","indexed":false,"internalType":"uint256"}],"anonymous":false},{"type":"error","name":"AlreadyDisputed","inputs":[]},{"type":"error","name":"AmountBelowMinimum","inputs":[]},{"type":"error","name":"ConfirmWindowActive","inputs":[]},{"type":"error","name":"ConfirmWindowExpired","inputs":[]},{"type":"error","name":"InsufficientFunds","inputs":[]},{"type":"error","name":"InvalidArbitrator","inputs":[]},{"type":"error","name":"InvalidFeeBps","inputs":[]},{"type":"error","name":"InvalidJobState","inputs":[]},{"type":"error","name":"InvalidPaymentMint","inputs":[]},{"type":"error","name":"JobExpired","inputs":[]},{"type":"error","name":"JobNotFound","inputs":[]},{"type":"error","name":"NoDisputeToResolve","inputs":[]},{"type":"error","name":"UnauthorizedCaller","inputs":[]}],"bytecode":{"object":"0x60e03461010e57601f61326f38819003918201601f19168301916001600160401b038311848410176101125780849260809460405283398101031261010e5761004781610126565b9061005460208201610126565b61006c606061006560408501610126565b9301610126565b60809390935260a05260c052600580546001600160a01b0319166001600160a01b03909216919091179055604051613134908161013b823960805181818161022b0152610424015260a051818181610f140152818161119d01528181611a8c0152818161233b0152818161247601526128ae015260c0518181816101c60152818161028e01528181610eda015281816114cd0152818161194801526126d30152f35b5f80fd5b634e487b7160e01b5f52604160045260245ffd5b51906001600160a01b038216820361010e5756fe610160604052600436101561001b575b3615610019575f80fd5b005b5f5f3560e01c80630480b2ba14612bf25780631681ec0814612bd757806317a85f5514612b63578063189b1b9414612b08578063224aeb8e146127f55780632acfa82b1461278357806330e181c114611e7f57806334307ae6146127015780633738de3f146122855780633d1f0bb9146120a857806342266f4d14611e9c57806343b55d6e14611e7f5780635752291514611cb057806364df049e14611c87578063785a63c6146119bf5780637dbbd597146119775780638da5cb5b14611932578063927a831b146118db5780639d02af08146118a8578063a124b3d1146102e9578063a5d008fc1461156a578063ab4fef3d14610306578063be3782281461154e578063c0417e58146114b5578063c1e58493146111cc578063c52164c614611187578063c6c3f75314610e18578063c8b6ce2014610324578063cc08b83414610306578063d03076b81461025a578063db105dd3146102e9578063db2e21bc14610277578063ddbcb5fa1461025a578063dfdfe9c8146102155763e521cb92146101a7575061000f565b34610212576020366003190112610212576101c0612c91565b6101f4337f00000000000000000000000000000000000000000000000000000000000000006001600160a01b031614612fd3565b60018060a01b03166001600160601b0360a01b600554161760055580f35b80fd5b50346102125780600319360112610212576040517f00000000000000000000000000000000000000000000000000000000000000006001600160a01b03168152602090f35b503461021257806003193601126102125760206040516103e88152f35b5034610212578060031936011261021257808080807f00000000000000000000000000000000000000000000000000000000000000006001600160a01b03166102c1338214612fd3565b47908282156102e0575bf1156102d45780f35b604051903d90823e3d90fd5b506108fc6102cb565b5034610212578060031936011261021257602060405161012c8152f35b50346102125780600319360112610212576020600654604051908152f35b506101203660031901126102125761033a612c91565b6044356001600160401b03811690818103610e1457606435916001600160401b0383168303610e10576084356001600160401b03811690818103610e0c5760a4356001600160401b038111610e0857610397903690600401612df4565b60c4359460e4356001600160a01b0381169490859003610e0457610104356fffffffffffffffffffffffffffffffff19811603610e04576103e88710610db55784159586801580610dad575b5015610d5e5742811115610d19576103ff610e10914290612ec8565b11610cc25760405162ec757960e11b81526001600160a01b038b8116600483018190527f00000000000000000000000000000000000000000000000000000000000000009091169b909990918d9080808f5a92602491602094fa9182156102d45791610c88575b506001600160a01b0316978815610c37578d8d60208b602460405180948193639b5e1a3b60e01b835260048301525afa9182156102d45791610bfc575b5015610bb85715610b6157883403610b1d575b6040519060208201923360601b84526001600160601b03199060601b1660348301526001600160401b0360c01b9060c01b16604882015242605082015260508152610502607082612d0f565b519020808c52600160205260408c20549099906001600160a01b0316610ad857604051602081018b81526b195cd8dc9bddd7dd985d5b1d60a21b6040830152602c8252610550604c83612d0f565b905190206001600160a01b0316808d5260208d90526040808e208c81556001810180546001600160a01b031990811633179091556002820180549091168d17905590516355f21eb760e01b81526004810199909952909b9097908d90829060249082905afa8015610acd578d90610856575b602091500151600388015560243560048801556fffffffffffffffff000000000000000060058801938454936001600160401b0360801b9060801b16936001600160401b0360c01b16179160401b161717905560068401916001600160401b0382116108425781906106348454612ca7565b601f81116107e8575b508a90601f8311600114610783578b92610778575b50508160011b915f199060031b1c19161790555b82600783015560088201906001600160601b0360a01b82541617905560646009820155600a810160ff198154169055600b4291015582855260016020526040852060018060a01b0385166001600160601b0360a01b82541617905533855260026020526106d68360408720613072565b81855260036020526106eb8360408720613072565b60045494600160401b86101561076457508261072a610714876001604099016004556004612c43565b819391549060031b91821b915f19901b19161790565b90558451908152827fd4308b56cdccee295e288de7c02585786d44894362fac012f3053072b5257c6a60203393a482519182526020820152f35b634e487b7160e01b81526041600452602490fd5b013590505f80610652565b848c5260208c20925090601f1984168c5b8181106107d057509084600195949392106107b7575b505050811b019055610666565b01355f19600384901b60f8161c191690555f80806107aa565b91936020600181928787013581550195019201610794565b8281111561063d57909150838b5260208b20601f840160051c906020851061083a575b849392601f0160051c82900391018c5b82811061082957505061063d565b8082018e905585945060010161081b565b8c915061080b565b634e487b7160e01b8a52604160045260248afd5b503d808e833e6108668183612d0f565b810190602081830312610ac9578051906001600160401b0382116109d357019061016082820312610ac9576040519061016082018281106001600160401b03821117610ab4576040526108b883613018565b82526020830151602083015260408301516001600160401b038111610ab057816108e391850161302c565b6040830152606083015161ffff81168103610ab057606083015260808301516001600160401b038111610ab05783019080601f83011215610ab0578151916001600160401b038311610a9a578260051b91604051936109456020850186612d0f565b845260208085019383010191818311610a935760208101935b8385106109d7575050505050608082015260a08201516001600160401b03811681036109d35760a082015260c082015160c082015260e082015160e082015261010082015160ff811681036109d3576020926101409161010084015261012081015161012084015201516101408201526105c2565b8e80fd5b84516001600160401b038111610a8a5782016080818503601f190112610a8a5760405191608083018381106001600160401b03821117610a6e576040526020820151926001600160401b038411610a6357608083610a3c88602080988198010161302c565b8352604081015185840152606081015160408401520151606082015281520194019361095e565b505050505050508f80fd5b505050505050505060248f634e487b7160e01b81526041600452fd5b50505050508f80fd5b5050508f80fd5b5050634e487b7160e01b8f52604160045260248ffd5b8f80fd5b50634e487b7160e01b8f52604160045260248ffd5b8d80fd5b6040513d8f823e3d90fd5b60405162461bcd60e51b815260206004820152601d60248201527f457363726f775661756c743a206475706c6963617465206a6f622049440000006044820152606490fd5b606460405162461bcd60e51b815260206004820152602060248201527f457363726f775661756c743a2045544820616d6f756e74206d69736d617463686044820152fd5b34156104b65760405162461bcd60e51b815260206004820152602360248201527f457363726f775661756c743a204554482073656e7420666f72204552433230206044820152623537b160e91b6064820152608490fd5b606460405162461bcd60e51b815260206004820152602060248201527f457363726f775661756c743a2070726f7669646572206e6f74206163746976656044820152fd5b90506020813d602011610c2f575b81610c1760209383612d0f565b810103126109d3575180151581036109d3575f6104a3565b3d9150610c0a565b60405162461bcd60e51b8152602060048201526024808201527f457363726f775661756c743a2070726f7669646572206e6f7420726567697374604482015263195c995960e21b6064820152608490fd5b90506020813d602011610cba575b81610ca360209383612d0f565b81010312610ac957610cb490613018565b5f610466565b3d9150610c96565b60405162461bcd60e51b815260206004820152602960248201527f457363726f775661756c743a2076616c6964556e74696c20746f6f2066617220604482015268696e2066757475726560b81b6064820152608490fd5b60405162461bcd60e51b815260206004820152601f60248201527f457363726f775661756c743a2076616c6964556e74696c20696e2070617374006044820152606490fd5b60405162461bcd60e51b815260206004820152602160248201527f457363726f775661756c743a20696e76616c6964207061796d656e74206d696e6044820152601d60fa1b6064820152608490fd5b90505f6103e3565b60405162461bcd60e51b815260206004820152602160248201527f457363726f775661756c743a20616d6f756e742062656c6f77206d696e696d756044820152606d60f81b6064820152608490fd5b8a80fd5b8780fd5b8680fd5b8480fd5b8380fd5b503461021257604036600319011261021257610e32612c91565b6001600160a01b0390811680835260208390526040832060010154602435921633148015611166575b156111135780835282602052610e7660408420541515612e21565b82528160205260408220600a810160ff81541660038114908115611108575b81156110fd575b81156110f2575b50156110ad5760128201805461106857831561102357815460ff19166007179091558290556013810180546001600160a01b0319167f00000000000000000000000000000000000000000000000000000000000000006001600160a01b0390811691909117909155600282015484917f000000000000000000000000000000000000000000000000000000000000000081169116813b15610ff05760405190630d21ecb560e11b82526004820152828160248183865af1908115611018578391610fff575b505060018301546001600160a01b0316813b15610ff05782916024839260405194859384926309318a6960e41b845260048401525af18015610ff457610fdb575b5050546040519182527f6012d6e634f4bab2f156c067f1c01e2f50fd113f491477df2266b7cf5521ee9660203393a380f35b81610fe591612d0f565b610ff057825f610fa9565b8280fd5b6040513d84823e3d90fd5b8161100991612d0f565b61101457815f610f68565b5080fd5b6040513d85823e3d90fd5b60405162461bcd60e51b815260206004820152601d60248201527f457363726f775661756c743a20696e76616c69642065766964656e63650000006044820152606490fd5b60405162461bcd60e51b815260206004820152601d60248201527f457363726f775661756c743a20616c72656164792064697370757465640000006044820152606490fd5b60405162461bcd60e51b815260206004820152601f60248201527f457363726f775661756c743a206a6f62206e6f742064697370757461626c65006044820152606490fd5b60029150145f610ea3565b600181149150610e9c565b600481149150610e95565b60405162461bcd60e51b815260206004820152602560248201527f457363726f775661756c743a206e6f7420636f6e73756d6572206f722070726f6044820152643b34b232b960d91b6064820152608490fd5b50808352602083905260408320600201546001600160a01b03163314610e5b565b50346102125780600319360112610212576040517f00000000000000000000000000000000000000000000000000000000000000006001600160a01b03168152602090f35b5034610212576020366003190112610212576001600160a01b036111ee612c91565b168082528160205261121060018060a01b036001604085200154163314612f87565b8082528160205261122660408320541515612e21565b81528060205260408120600a810160ff81541680158080156114ab575b15611466576113fd575b60011461137a575b60078201908382548015908115611336575b505050600660ff1982541617905542600f830155825b6004548082101561132e5761129182612c17565b90549060031b1c8454146112a8575060010161127d565b9192915f19810190811161131a576107146112c56112d292612c17565b90549060031b1c92612c17565b90556112dc612f2e565b7fa29cbf249cfa7f4623dd9da8fb1b5a81ce77895327f92a86a8539d4b823333a660208254926001808060a01b03910154169354604051908152a380f35b634e487b7160e01b85526011600452602485fd5b5050906112dc565b60088601546001600160a01b03166112675782809291819260018060a01b0360018a015416908390611371575bf11561101857835f80611267565b506108fc611363565b600c82015461025881018091116113e9574210156112555760405162461bcd60e51b815260206004820152602960248201527f457363726f775661756c743a2070726f76696465722074696d656f7574206e6f6044820152681d081c995858da195960ba1b6064820152608490fd5b634e487b7160e01b84526011600452602484fd5b600b830154610258810180911161131a5742101561124d5760405162461bcd60e51b8152602060048201526024808201527f457363726f775661756c743a206a6f622074696d656f7574206e6f742072656160448201526318da195960e21b6064820152608490fd5b60405162461bcd60e51b815260206004820152601f60248201527f457363726f775661756c743a206a6f62206e6f7420726566756e6461626c65006044820152606490fd5b5060018214611243565b5034610212576020366003190112610212576114fb337f00000000000000000000000000000000000000000000000000000000000000006001600160a01b031614612fd3565b612710600435116115095780f35b60405162461bcd60e51b815260206004820152601d60248201527f457363726f775661756c743a206665652062707320746f6f20686967680000006044820152606490fd5b5034610212578060031936011261021257602060405160648152f35b503461021257602036600319011261021257604090611587612c91565b816102a0845161159681612cdf565b82815282602082015282868201528260608201528260808201528260a08201528260c08201528260e0820152606061010082015282610120820152826101408201528261016082015282610180820152826101a0820152826101c0820152826101e08201528261020082015282610220820152826102408201528261026082015282610280820152015260018060a01b0316815280602052206040519061163c82612cdf565b8054825260018060a01b03600182015416602083015260018060a01b03600282015416604083015260038101546060830152600481015460808301526001600160401b03600582015481811660a0850152818160401c1660c085015260801c1660e08301526116ad60068201612d30565b610100830152600781015461012083015260018060a01b03600882015416610140830152600981015461016083015260ff600a82015416610180830152600b8101546101a0830152600c8101546101c0830152600d8101546101e0830152600e810154610200830152600f810154610220830152601081015461024083015260118101546102608301526012810154610280830152601360018060a01b03910154166102a08201526040518091602082528051602083015260018060a01b03602082015116604083015260018060a01b03604082015116606083015260608101516080830152608081015160a08301526001600160401b0360a08201511660c08301526001600160401b0360c08201511660e08301526001600160401b0360e0820151166101008301526117f46101008201516102c06101208501526102e0840190612dd0565b9061012081015161014084015260018060a01b036101408201511661016084015261016081015161018084015260ff610180820151166101a08401526101a08101516101c08401526101c08101516101e08401526101e08101516102008401526102008101516102208401526102208101516102408401526102408101516102608401526102608101516102808401526102808101516102a08401526102a060018060a01b03910151166102c08301520390f35b503461021257602036600319011261021257602090600435815260018252604060018060a01b0391205416604051908152f35b5034610212576040366003190112610212576118f5612c91565b6001600160a01b03168152600360205260408120805460243592908310156102125760206119238484612c43565b90549060031b1c604051908152f35b50346102125780600319360112610212576040517f00000000000000000000000000000000000000000000000000000000000000006001600160a01b03168152602090f35b503461021257604036600319011261021257611991612c91565b6001600160a01b03168152600260205260408120805460243592908310156102125760206119238484612c43565b5034610212576020366003190112610212576001600160a01b036119e1612c91565b1680825281602052611a0360018060a01b036001604085200154163314612f87565b80825281602052611a1960408320541515612e21565b8152806020526040812081600a8201611a38600460ff83541614612e6d565b60078301805491611a5b612710611a53600988015486613098565b048094612ec8565b928481158015611bfd575b50905083158015611baf575b5050805460ff1916600517905542600f85015560028401547f00000000000000000000000000000000000000000000000000000000000000006001600160a01b03908116939116833b15610e105760405162e2a20760e01b81526001600160a01b039190911660048201526024810191909152838160448183875af1908115611ba4578491611b8f575b505060018060a01b036001850154169054823b15610e1457604051637192f7e960e11b81526001600160a01b0392909216600483015260248201529082908290604490829084905af18015610ff457611b7a575b5050547f5fbdfe1e69713d9b1f05593d492172761289a42201eb8f4e743fcce2d58d5a1a8280a280f35b81611b8491612d0f565b61101457815f611b50565b81611b9991612d0f565b610ff057825f611afc565b6040513d86823e3d90fd5b600887015485906001600160a01b031615611bcb575b50611a72565b82809291819260018060a01b0360028c015416908390611bf4575bf11561101857835f84611bc5565b506108fc611be6565b60088801546001600160a01b031615611c55575b5050602081611c437f414d7d8eae12f648156e75499fc0a5a10aa84f2745c6f791b0453cb17f1e17fa93600654612ed5565b600655604051908152a15f8481611a66565b60055482918291829186916001600160a01b0316908390611c7e575bf115611ba457845f611c11565b506108fc611c71565b50346102125780600319360112610212576005546040516001600160a01b039091168152602090f35b503461021257606036600319011261021257611cca612c91565b602435906044356001600160401b038111610e1457611ced903690600401612df4565b6001600160a01b039283168086526020869052604086206002015491939091611d1891163314612ee2565b80855284602052611d2e60408620541515612e21565b8452836020526040842090600a82019260ff84541660018114908115611e74575b5015611e1f57600360ff1985541617845542600d84015584601084015580611db6575b50506020907fc8be633b417d6abc866576725ccae59e4485cadbfa720f769b9b6ba7b152713692600460ff1982541617905542600e8201555492604051908152a280f35b919092611dc283612f6c565b611dcf6040519182612d0f565b83815260208101908736868801116102125760208681977fc8be633b417d6abc866576725ccae59e4485cadbfa720f769b9b6ba7b152713699863783010152519020601183015592819250611d72565b60405162461bcd60e51b815260206004820152602760248201527f457363726f775661756c743a20696e76616c696420737461746520666f7220636044820152666f6d706c65746560c81b6064820152608490fd5b60029150145f611d4f565b503461021257806003193601126102125760206040516102588152f35b5034610212576040366003190112610212576001600160a01b03611ebe612c91565b1680825281602052611ee060018060a01b036002604085200154163314612ee2565b80825281602052611ef660408320541515612e21565b81528060205260408120600a810160ff81541661205857602435600483015403612008576001600160401b03600583015460801c16421015611fc357805460ff1916600117905542600c820155815b60045480821015611fbc57611f5982612c17565b90549060031b1c835414611f705750600101611f45565b5f1981019081116113e9576107146112c5611f8a92612c17565b9055611f94612f2e565b547f6fd8d753784efa15d9d22284e63d40f00cf579e75134bd9467eca7fb133092eb8280a280f35b5050611f94565b60405162461bcd60e51b815260206004820152601a60248201527f457363726f775661756c743a2071756f746520657870697265640000000000006044820152606490fd5b60405162461bcd60e51b815260206004820152602260248201527f457363726f775661756c743a20726571756573742068617368206d69736d61746044820152610c6d60f31b6064820152608490fd5b60405162461bcd60e51b815260206004820152602260248201527f457363726f775661756c743a20696e76616c696420737461746520666f722061604482015261636b60f01b6064820152608490fd5b5034610212576020366003190112610212576001600160a01b036120ca612c91565b168152602081905260409020805460018201546001600160a01b0390811661012052600283015416610140526003820154600483015460058401549392919061211560068501612d30565b94600785015461010052600160a01b60019003600886015416956009860154600a87015460ff1690600b88015492600c89015494600d8a015496600e8b015498600f8c01549a60108d01549c6011810154608052601281015460a052600160a01b6001900390601301541660e05260405160c05260c051526101205160c051602001526101405160c0516040015260c0516060015260c051608001526001600160401b03811660c05160a001528060401c6001600160401b031660c05160c0015260801c6001600160401b031660c05160e0015260c051610100016102c0905260c0516102c00161220591612dd0565b986101005160c051610120015260c051610140015260c051610160015260c051610180015260c0516101a0015260c0516101c0015260c0516101e0015260c051610200015260c051610220015260c051610240015260805160c051610260015260a05160c051610280015260e05160c0516102a0015260c051900360c051f35b50346102125760403660031901126102125761229f612c91565b60243580151591828203610e14576001600160a01b0390811680855260208590526040852060130154909116331480156126cf575b1561268a57808452836020526122ef60408520541515612e21565b8352826020526040832090600a820190600760ff8354160361263a576012830154156125f6571561242d5783600783015480159081156123e9575b505060018301546001600160a01b037f000000000000000000000000000000000000000000000000000000000000000081169116813b15610ff05782916024839260405194859384926336646e1160e21b845260048401525af18015610ff4576123d4575b50507fa1143fd244632ca3a3a974dd7b043d0ccc765375a3d27db65d74bda9fd89cc97916020915b805460ff1916600517905542600f8201555460405193845292a280f35b816123de91612d0f565b610e1457835f61238f565b60088501546001600160a01b031661232a5782809291819260018060a01b03600189015416908390612424575bf11561101857835f8061232a565b506108fc612416565b83600783015461244f612710612447600987015484613098565b048092612ec8565b9082821580156125a8575b508115801561251e575b50505060028401546001600160a01b037f0000000000000000000000000000000000000000000000000000000000000000811692911690823b15610e145760405162e2a20760e01b81526001600160a01b0392909216600483015260248201529082908290604490829084905af18015610ff457612509575b50507fa1143fd244632ca3a3a974dd7b043d0ccc765375a3d27db65d74bda9fd89cc97916020916123b7565b8161251391612d0f565b610e1457835f6124dd565b60088701546001600160a01b031615612576575b50506020816125647f414d7d8eae12f648156e75499fc0a5a10aa84f2745c6f791b0453cb17f1e17fa93600654612ed5565b600655604051908152a15f8281612464565b60055482918291829186916001600160a01b031690839061259f575bf115610ff457825f612532565b506108fc612592565b600887015484906001600160a01b0316156125c4575b5061245a565b82809291819260018060a01b0360028c0154169083906125ed575bf115610ff457825f836125be565b506108fc6125df565b606460405162461bcd60e51b815260206004820152602060248201527f457363726f775661756c743a206e6f20646973707574652065766964656e63656044820152fd5b60405162461bcd60e51b815260206004820152602260248201527f457363726f775661756c743a206e6f206469737075746520746f207265736f6c604482015261766560f01b6064820152608490fd5b60405162461bcd60e51b815260206004820152601b60248201527f457363726f775661756c743a206e6f742061726269747261746f7200000000006044820152606490fd5b50337f00000000000000000000000000000000000000000000000000000000000000006001600160a01b0316146122d4565b5034610212576020366003190112610212576001600160a01b03612723612c91565b168152600260205260408120604051918260208354918281520192825260208220915b81811061276d576127698561275d81870382612d0f565b60405191829182612c58565b0390f35b8254845260209093019260019283019201612746565b5034610212576020366003190112610212576001600160a01b036127a5612c91565b168152600360205260408120604051918260208354918281520192825260208220915b8181106127df576127698561275d81870382612d0f565b82548452602090930192600192830192016127c8565b50346129d45760203660031901126129d4576001600160a01b03612817612c91565b16805f525f60205261282e60405f20541515612e21565b5f525f60205260405f20600a810161284c600460ff83541614612e6d565b600e82015461012c8101809111612af4574210612a9f576007820180549161287e612710611a53600987015486613098565b9280158015612a1b575b505082801580156129d8575b5050805460ff1916600517905542600f84015560028301547f00000000000000000000000000000000000000000000000000000000000000006001600160a01b03908116939116833b156129d45760405162e2a20760e01b81526001600160a01b0391909116600482015260248101919091525f8160448183875af180156129c9576129b2575b50600183015490548492916001600160a01b031690823b15610e1457604051637192f7e960e11b81526001600160a01b0392909216600483015260248201529082908290604490829084905af18015610ff45761299d575b5050547f2e4a0d79771f9c75fb73e64a690afc18f1c09df95f479626e88250d843aa97948280a280f35b816129a791612d0f565b61101457815f612973565b6129c0919294505f90612d0f565b5f92905f61291b565b6040513d5f823e3d90fd5b5f80fd5b60088601546001600160a01b0316612894575f808093819360018060a01b0360028b015416908390612a12575bf1156129c957825f612894565b506108fc612a05565b60088601546001600160a01b031615612a71575b50602081612a607f414d7d8eae12f648156e75499fc0a5a10aa84f2745c6f791b0453cb17f1e17fa93600654612ed5565b600655604051908152a15f80612888565b5f808084819460018060a01b0360055416908390612a96575bf1156129c9575f612a2f565b506108fc612a8a565b60405162461bcd60e51b815260206004820152602760248201527f457363726f775661756c743a20636f6e6669726d2077696e646f77206e6f7420604482015266195e1c1a5c995960ca1b6064820152608490fd5b634e487b7160e01b5f52601160045260245ffd5b346129d45760203660031901126129d4576001600160a01b03612b29612c91565b165f525f60205260ff600a60405f200154166008811015612b4f57602090604051908152f35b634e487b7160e01b5f52602160045260245ffd5b346129d4575f3660031901126129d45760405180602060045491828152019060045f527f8a35acfbc15ff81a39ae7d344fd709f28e8600b4aa8c65c6b64bfe7fe36bd19b905f5b818110612bc1576127698561275d81870382612d0f565b8254845260209093019260019283019201612baa565b346129d4575f3660031901126129d457602060405160648152f35b346129d45760203660031901126129d4576004356004548110156129d4576119236020915b600454811015612c2f5760045f5260205f2001905f90565b634e487b7160e01b5f52603260045260245ffd5b8054821015612c2f575f5260205f2001905f90565b60206040818301928281528451809452019201905f5b818110612c7b5750505090565b8251845260209384019390920191600101612c6e565b600435906001600160a01b03821682036129d457565b90600182811c92168015612cd5575b6020831014612cc157565b634e487b7160e01b5f52602260045260245ffd5b91607f1691612cb6565b6102c081019081106001600160401b03821117612cfb57604052565b634e487b7160e01b5f52604160045260245ffd5b90601f801991011681019081106001600160401b03821117612cfb57604052565b9060405191825f825492612d4384612ca7565b8084529360018116908115612dae5750600114612d6a575b50612d6892500383612d0f565b565b90505f9291925260205f20905f915b818310612d92575050906020612d68928201015f612d5b565b6020919350806001915483858901015201910190918492612d79565b905060209250612d6894915060ff191682840152151560051b8201015f612d5b565b805180835260209291819084018484015e5f828201840152601f01601f1916010190565b9181601f840112156129d4578235916001600160401b0383116129d457602083818601950101116129d457565b15612e2857565b60405162461bcd60e51b815260206004820152601a60248201527f457363726f775661756c743a206a6f62206e6f7420666f756e640000000000006044820152606490fd5b15612e7457565b60405162461bcd60e51b815260206004820152602660248201527f457363726f775661756c743a20636f6e6669726d2077696e646f77206e6f742060448201526561637469766560d01b6064820152608490fd5b91908203918211612af457565b91908201809211612af457565b15612ee957565b60405162461bcd60e51b815260206004820152601960248201527f457363726f775661756c743a206e6f742070726f7669646572000000000000006044820152606490fd5b6004548015612f58575f1901612f45816004612c43565b8154905f199060031b1b19169055600455565b634e487b7160e01b5f52603160045260245ffd5b6001600160401b038111612cfb57601f01601f191660200190565b15612f8e57565b60405162461bcd60e51b815260206004820152601960248201527f457363726f775661756c743a206e6f7420636f6e73756d6572000000000000006044820152606490fd5b15612fda57565b60405162461bcd60e51b815260206004820152601660248201527522b9b1b937bbab30bab63a1d103737ba1037bbb732b960511b6044820152606490fd5b51906001600160a01b03821682036129d457565b81601f820112156129d45780519061304382612f6c565b926130516040519485612d0f565b828452602083830101116129d457815f9260208093018386015e8301015290565b805490600160401b821015612cfb578161071491600161309494018155612c43565b9055565b9081156130f857808202918204808203612af457036130b45790565b606460405162461bcd60e51b815260206004820152602060248201527f4d6174684c69623a206d756c7469706c69636174696f6e206f766572666c6f776044820152fd5b50505f9056fea26469706673582212206af53476fbd112913edeae8649dc172d5b435e81b7d0800482b92c091bc3e97664736f6c63430008230033","linkReferences":{}},"methodIdentifiers":{"CONFIRM_WINDOW()":"a124b3d1","CONFIRM_WINDOW_()":"db105dd3","JOB_TIMEOUT()":"43b55d6e","JOB_TIMEOUT_()":"30e181c1","MIN_AMOUNT()":"ddbcb5fa","MIN_AMOUNT_()":"d03076b8","PROTOCOL_FEE_BPS()":"be378228","PROTOCOL_FEE_BPS_()":"1681ec08","anyoneConfirm(address)":"224aeb8e","computeRegistry()":"dfdfe9c8","consumerConfirm(address)":"785a63c6","consumerJobs(address,uint256)":"7dbbd597","createJob(address,bytes32,uint64,uint64,uint64,bytes,uint256,address,bytes16)":"c8b6ce20","emergencyWithdraw()":"db2e21bc","getJob(address)":"a5d008fc","getJobState(address)":"189b1b94","getJobsByConsumer(address)":"34307ae6","getJobsByProvider(address)":"2acfa82b","getPendingJobs()":"17a85f55","jobIdToAddress(bytes32)":"9d02af08","jobs(address)":"3d1f0bb9","owner()":"8da5cb5b","pendingJobs(uint256)":"0480b2ba","protocolFeeRecipient()":"64df049e","protocolFeesCollected()":"cc08b834","protocolFeesCollected_()":"ab4fef3d","providerAck(address,bytes32)":"42266f4d","providerComplete(address,bytes32,bytes)":"57522915","providerJobs(address,uint256)":"927a831b","raiseDispute(address,bytes32)":"c6c3f753","refundJob(address)":"c1e58493","reputation()":"c52164c6","resolveDispute(address,bool)":"3738de3f","setProtocolFeeBps(uint256)":"c0417e58","setProtocolFeeRecipient(address)":"e521cb92"},"id":1}